{
  "_format": "hh-sol-artifact-1",
  "contractName": "ProofAI",
  "sourceName": "contracts/ProofAI.sol",
  "abi": [
    {
      "inputs": [],
      "stateMutability": "nonpayable",
      "type": "constructor"
    },
    {
      "anonymous": false,
      "inputs": [
        {
          "indexed": true,
          "internalType": "address",
          "name": "owner",
          "type": "address"
        },
        {
          "indexed": true,
          "internalType": "address",
          "name": "approved",
          "type": "address"
        },
        {
          "indexed": true,
          "internalType": "uint256",
          "name": "tokenId",
          "type": "uint256"
        }
      ],
      "name": "Approval",
      "type": "event"
    },
    {
      "anonymous": false,
      "inputs": [
        {
          "indexed": true,
          "internalType": "address",
          "name": "owner",
          "type": "address"
        },
        {
          "indexed": true,
          "internalType": "address",
          "name": "operator",
          "type": "address"
        },
        {
          "indexed": false,
          "internalType": "bool",
          "name": "approved",
          "type": "bool"
        }
      ],
      "name": "ApprovalForAll",
      "type": "event"
    },
    {
      "anonymous": false,
      "inputs": [
        {
          "indexed": true,
          "internalType": "address",
          "name": "company",
          "type": "address"
        },
        {
          "indexed": false,
          "internalType": "string",
          "name": "companyName",
          "type": "string"
        }
      ],
      "name": "CompanyAuthorized",
      "type": "event"
    },
    {
      "anonymous": false,
      "inputs": [
        {
          "indexed": true,
          "internalType": "address",
          "name": "user",
          "type": "address"
        },
        {
          "indexed": true,
          "internalType": "uint256",
          "name": "tokenId",
          "type": "uint256"
        },
        {
          "indexed": false,
          "internalType": "string",
          "name": "credentialType",
          "type": "string"
        },
        {
          "indexed": false,
          "internalType": "uint256",
          "name": "trustScore",
          "type": "uint256"
        }
      ],
      "name": "CredentialMinted",
      "type": "event"
    },
    {
      "anonymous": false,
      "inputs": [
        {
          "indexed": true,
          "internalType": "uint256",
          "name": "tokenId",
          "type": "uint256"
        }
      ],
      "name": "CredentialRevoked",
      "type": "event"
    },
    {
      "anonymous": false,
      "inputs": [
        {
          "indexed": true,
          "internalType": "uint256",
          "name": "tokenId",
          "type": "uint256"
        },
        {
          "indexed": false,
          "internalType": "uint256",
          "name": "endDate",
          "type": "uint256"
        },
        {
          "indexed": false,
          "internalType": "string",
          "name": "reason",
          "type": "string"
        }
      ],
      "name": "EmploymentEnded",
      "type": "event"
    },
    {
      "anonymous": false,
      "inputs": [
        {
          "indexed": true,
          "internalType": "address",
          "name": "employee",
          "type": "address"
        },
        {
          "indexed": true,
          "internalType": "address",
          "name": "employer",
          "type": "address"
        },
        {
          "indexed": false,
          "internalType": "uint256",
          "name": "tokenId",
          "type": "uint256"
        },
        {
          "indexed": false,
          "internalType": "string",
          "name": "position",
          "type": "string"
        }
      ],
      "name": "EmploymentMinted",
      "type": "event"
    },
    {
      "anonymous": false,
      "inputs": [
        {
          "indexed": true,
          "internalType": "address",
          "name": "previousOwner",
          "type": "address"
        },
        {
          "indexed": true,
          "internalType": "address",
          "name": "newOwner",
          "type": "address"
        }
      ],
      "name": "OwnershipTransferred",
      "type": "event"
    },
    {
      "anonymous": false,
      "inputs": [
        {
          "indexed": true,
          "internalType": "address",
          "name": "from",
          "type": "address"
        },
        {
          "indexed": true,
          "internalType": "address",
          "name": "to",
          "type": "address"
        },
        {
          "indexed": true,
          "internalType": "uint256",
          "name": "tokenId",
          "type": "uint256"
        }
      ],
      "name": "Transfer",
      "type": "event"
    },
    {
      "inputs": [
        {
          "internalType": "address",
          "name": "to",
          "type": "address"
        },
        {
          "internalType": "uint256",
          "name": "tokenId",
          "type": "uint256"
        }
      ],
      "name": "approve",
      "outputs": [],
      "stateMutability": "nonpayable",
      "type": "function"
    },
    {
      "inputs": [
        {
          "internalType": "address",
          "name": "companyAddress",
          "type": "address"
        },
        {
          "internalType": "string",
          "name": "companyName",
          "type": "string"
        }
      ],
      "name": "authorizeCompany",
      "outputs": [],
      "stateMutability": "nonpayable",
      "type": "function"
    },
    {
      "inputs": [
        {
          "internalType": "address",
          "name": "",
          "type": "address"
        }
      ],
      "name": "authorizedCompanies",
      "outputs": [
        {
          "internalType": "bool",
          "name": "",
          "type": "bool"
        }
      ],
      "stateMutability": "view",
      "type": "function"
    },
    {
      "inputs": [
        {
          "internalType": "address",
          "name": "owner",
          "type": "address"
        }
      ],
      "name": "balanceOf",
      "outputs": [
        {
          "internalType": "uint256",
          "name": "",
          "type": "uint256"
        }
      ],
      "stateMutability": "view",
      "type": "function"
    },
    {
      "inputs": [
        {
          "internalType": "address",
          "name": "employee",
          "type": "address"
        }
      ],
      "name": "checkEmploymentConflicts",
      "outputs": [
        {
          "internalType": "bool",
          "name": "hasConflicts",
          "type": "bool"
        },
        {
          "internalType": "uint256",
          "name": "activeFullTimeCount",
          "type": "uint256"
        }
      ],
      "stateMutability": "view",
      "type": "function"
    },
    {
      "inputs": [
        {
          "internalType": "uint256",
          "name": "",
          "type": "uint256"
        }
      ],
      "name": "credentials",
      "outputs": [
        {
          "internalType": "string",
          "name": "credentialType",
          "type": "string"
        },
        {
          "internalType": "string",
          "name": "issuerName",
          "type": "string"
        },
        {
          "internalType": "uint256",
          "name": "trustScore",
          "type": "uint256"
        },
        {
          "internalType": "uint256",
          "name": "issuedDate",
          "type": "uint256"
        },
        {
          "internalType": "bool",
          "name": "isRevoked",
          "type": "bool"
        }
      ],
      "stateMutability": "view",
      "type": "function"
    },
    {
      "inputs": [
        {
          "internalType": "address",
          "name": "",
          "type": "address"
        }
      ],
      "name": "employmentRecords",
      "outputs": [
        {
          "internalType": "uint256",
          "name": "activeCount",
          "type": "uint256"
        },
        {
          "internalType": "uint256",
          "name": "lastUpdated",
          "type": "uint256"
        }
      ],
      "stateMutability": "view",
      "type": "function"
    },
    {
      "inputs": [
        {
          "internalType": "uint256",
          "name": "",
          "type": "uint256"
        }
      ],
      "name": "employments",
      "outputs": [
        {
          "internalType": "address",
          "name": "employer",
          "type": "address"
        },
        {
          "internalType": "string",
          "name": "companyName",
          "type": "string"
        },
        {
          "internalType": "string",
          "name": "position",
          "type": "string"
        },
        {
          "internalType": "uint256",
          "name": "startDate",
          "type": "uint256"
        },
        {
          "internalType": "uint256",
          "name": "endDate",
          "type": "uint256"
        },
        {
          "internalType": "string",
          "name": "employmentType",
          "type": "string"
        },
        {
          "internalType": "bool",
          "name": "isActive",
          "type": "bool"
        },
        {
          "internalType": "string",
          "name": "endReason",
          "type": "string"
        },
        {
          "internalType": "uint256",
          "name": "trustScore",
          "type": "uint256"
        }
      ],
      "stateMutability": "view",
      "type": "function"
    },
    {
      "inputs": [
        {
          "internalType": "uint256",
          "name": "tokenId",
          "type": "uint256"
        },
        {
          "internalType": "string",
          "name": "reason",
          "type": "string"
        }
      ],
      "name": "endEmployment",
      "outputs": [],
      "stateMutability": "nonpayable",
      "type": "function"
    },
    {
      "inputs": [
        {
          "internalType": "address",
          "name": "employee",
          "type": "address"
        }
      ],
      "name": "getActiveEmployments",
      "outputs": [
        {
          "components": [
            {
              "internalType": "address",
              "name": "employer",
              "type": "address"
            },
            {
              "internalType": "string",
              "name": "companyName",
              "type": "string"
            },
            {
              "internalType": "string",
              "name": "position",
              "type": "string"
            },
            {
              "internalType": "uint256",
              "name": "startDate",
              "type": "uint256"
            },
            {
              "internalType": "uint256",
              "name": "endDate",
              "type": "uint256"
            },
            {
              "internalType": "string",
              "name": "employmentType",
              "type": "string"
            },
            {
              "internalType": "bool",
              "name": "isActive",
              "type": "bool"
            },
            {
              "internalType": "string",
              "name": "endReason",
              "type": "string"
            },
            {
              "internalType": "uint256",
              "name": "trustScore",
              "type": "uint256"
            }
          ],
          "internalType": "struct ProofAI.Employment[]",
          "name": "",
          "type": "tuple[]"
        }
      ],
      "stateMutability": "view",
      "type": "function"
    },
    {
      "inputs": [
        {
          "internalType": "uint256",
          "name": "tokenId",
          "type": "uint256"
        }
      ],
      "name": "getApproved",
      "outputs": [
        {
          "internalType": "address",
          "name": "",
          "type": "address"
        }
      ],
      "stateMutability": "view",
      "type": "function"
    },
    {
      "inputs": [
        {
          "internalType": "address",
          "name": "owner",
          "type": "address"
        }
      ],
      "name": "getCredentialsByOwner",
      "outputs": [
        {
          "internalType": "uint256[]",
          "name": "",
          "type": "uint256[]"
        }
      ],
      "stateMutability": "view",
      "type": "function"
    },
    {
      "inputs": [
        {
          "internalType": "address",
          "name": "employee",
          "type": "address"
        }
      ],
      "name": "getEmploymentHistory",
      "outputs": [
        {
          "components": [
            {
              "internalType": "address",
              "name": "employer",
              "type": "address"
            },
            {
              "internalType": "string",
              "name": "companyName",
              "type": "string"
            },
            {
              "internalType": "string",
              "name": "position",
              "type": "string"
            },
            {
              "internalType": "uint256",
              "name": "startDate",
              "type": "uint256"
            },
            {
              "internalType": "uint256",
              "name": "endDate",
              "type": "uint256"
            },
            {
              "internalType": "string",
              "name": "employmentType",
              "type": "string"
            },
            {
              "internalType": "bool",
              "name": "isActive",
              "type": "bool"
            },
            {
              "internalType": "string",
              "name": "endReason",
              "type": "string"
            },
            {
              "internalType": "uint256",
              "name": "trustScore",
              "type": "uint256"
            }
          ],
          "internalType": "struct ProofAI.Employment[]",
          "name": "",
          "type": "tuple[]"
        }
      ],
      "stateMutability": "view",
      "type": "function"
    },
    {
      "inputs": [
        {
          "internalType": "address",
          "name": "owner",
          "type": "address"
        }
      ],
      "name": "getEmploymentsByOwner",
      "outputs": [
        {
          "internalType": "uint256[]",
          "name": "",
          "type": "uint256[]"
        }
      ],
      "stateMutability": "view",
      "type": "function"
    },
    {
      "inputs": [
        {
          "internalType": "address",
          "name": "owner",
          "type": "address"
        },
        {
          "internalType": "address",
          "name": "operator",
          "type": "address"
        }
      ],
      "name": "isApprovedForAll",
      "outputs": [
        {
          "internalType": "bool",
          "name": "",
          "type": "bool"
        }
      ],
      "stateMutability": "view",
      "type": "function"
    },
    {
      "inputs": [
        {
          "internalType": "uint256",
          "name": "tokenId",
          "type": "uint256"
        }
      ],
      "name": "isCredentialValid",
      "outputs": [
        {
          "internalType": "bool",
          "name": "",
          "type": "bool"
        }
      ],
      "stateMutability": "view",
      "type": "function"
    },
    {
      "inputs": [
        {
          "internalType": "address",
          "name": "to",
          "type": "address"
        },
        {
          "internalType": "string",
          "name": "credentialType",
          "type": "string"
        },
        {
          "internalType": "string",
          "name": "issuerName",
          "type": "string"
        },
        {
          "internalType": "uint256",
          "name": "trustScore",
          "type": "uint256"
        },
        {
          "internalType": "string",
          "name": "metadataURI",
          "type": "string"
        }
      ],
      "name": "mintCredential",
      "outputs": [
        {
          "internalType": "uint256",
          "name": "",
          "type": "uint256"
        }
      ],
      "stateMutability": "nonpayable",
      "type": "function"
    },
    {
      "inputs": [
        {
          "internalType": "address",
          "name": "employee",
          "type": "address"
        },
        {
          "internalType": "string",
          "name": "companyName",
          "type": "string"
        },
        {
          "internalType": "string",
          "name": "position",
          "type": "string"
        },
        {
          "internalType": "string",
          "name": "employmentType",
          "type": "string"
        },
        {
          "internalType": "string",
          "name": "metadataURI",
          "type": "string"
        }
      ],
      "name": "mintEmploymentNFT",
      "outputs": [
        {
          "internalType": "uint256",
          "name": "",
          "type": "uint256"
        }
      ],
      "stateMutability": "nonpayable",
      "type": "function"
    },
    {
      "inputs": [],
      "name": "name",
      "outputs": [
        {
          "internalType": "string",
          "name": "",
          "type": "string"
        }
      ],
      "stateMutability": "view",
      "type": "function"
    },
    {
      "inputs": [],
      "name": "owner",
      "outputs": [
        {
          "internalType": "address",
          "name": "",
          "type": "address"
        }
      ],
      "stateMutability": "view",
      "type": "function"
    },
    {
      "inputs": [
        {
          "internalType": "uint256",
          "name": "tokenId",
          "type": "uint256"
        }
      ],
      "name": "ownerOf",
      "outputs": [
        {
          "internalType": "address",
          "name": "",
          "type": "address"
        }
      ],
      "stateMutability": "view",
      "type": "function"
    },
    {
      "inputs": [],
      "name": "renounceOwnership",
      "outputs": [],
      "stateMutability": "nonpayable",
      "type": "function"
    },
    {
      "inputs": [
        {
          "internalType": "uint256",
          "name": "tokenId",
          "type": "uint256"
        }
      ],
      "name": "revokeCredential",
      "outputs": [],
      "stateMutability": "nonpayable",
      "type": "function"
    },
    {
      "inputs": [
        {
          "internalType": "address",
          "name": "from",
          "type": "address"
        },
        {
          "internalType": "address",
          "name": "to",
          "type": "address"
        },
        {
          "internalType": "uint256",
          "name": "tokenId",
          "type": "uint256"
        }
      ],
      "name": "safeTransferFrom",
      "outputs": [],
      "stateMutability": "nonpayable",
      "type": "function"
    },
    {
      "inputs": [
        {
          "internalType": "address",
          "name": "from",
          "type": "address"
        },
        {
          "internalType": "address",
          "name": "to",
          "type": "address"
        },
        {
          "internalType": "uint256",
          "name": "tokenId",
          "type": "uint256"
        },
        {
          "internalType": "bytes",
          "name": "data",
          "type": "bytes"
        }
      ],
      "name": "safeTransferFrom",
      "outputs": [],
      "stateMutability": "nonpayable",
      "type": "function"
    },
    {
      "inputs": [
        {
          "internalType": "address",
          "name": "operator",
          "type": "address"
        },
        {
          "internalType": "bool",
          "name": "approved",
          "type": "bool"
        }
      ],
      "name": "setApprovalForAll",
      "outputs": [],
      "stateMutability": "nonpayable",
      "type": "function"
    },
    {
      "inputs": [
        {
          "internalType": "bytes4",
          "name": "interfaceId",
          "type": "bytes4"
        }
      ],
      "name": "supportsInterface",
      "outputs": [
        {
          "internalType": "bool",
          "name": "",
          "type": "bool"
        }
      ],
      "stateMutability": "view",
      "type": "function"
    },
    {
      "inputs": [],
      "name": "symbol",
      "outputs": [
        {
          "internalType": "string",
          "name": "",
          "type": "string"
        }
      ],
      "stateMutability": "view",
      "type": "function"
    },
    {
      "inputs": [
        {
          "internalType": "uint256",
          "name": "index",
          "type": "uint256"
        }
      ],
      "name": "tokenByIndex",
      "outputs": [
        {
          "internalType": "uint256",
          "name": "",
          "type": "uint256"
        }
      ],
      "stateMutability": "view",
      "type": "function"
    },
    {
      "inputs": [
        {
          "internalType": "address",
          "name": "owner",
          "type": "address"
        },
        {
          "internalType": "uint256",
          "name": "index",
          "type": "uint256"
        }
      ],
      "name": "tokenOfOwnerByIndex",
      "outputs": [
        {
          "internalType": "uint256",
          "name": "",
          "type": "uint256"
        }
      ],
      "stateMutability": "view",
      "type": "function"
    },
    {
      "inputs": [
        {
          "internalType": "uint256",
          "name": "tokenId",
          "type": "uint256"
        }
      ],
      "name": "tokenURI",
      "outputs": [
        {
          "internalType": "string",
          "name": "",
          "type": "string"
        }
      ],
      "stateMutability": "view",
      "type": "function"
    },
    {
      "inputs": [],
      "name": "totalSupply",
      "outputs": [
        {
          "internalType": "uint256",
          "name": "",
          "type": "uint256"
        }
      ],
      "stateMutability": "view",
      "type": "function"
    },
    {
      "inputs": [
        {
          "internalType": "address",
          "name": "from",
          "type": "address"
        },
        {
          "internalType": "address",
          "name": "to",
          "type": "address"
        },
        {
          "internalType": "uint256",
          "name": "tokenId",
          "type": "uint256"
        }
      ],
      "name": "transferFrom",
      "outputs": [],
      "stateMutability": "nonpayable",
      "type": "function"
    },
    {
      "inputs": [
        {
          "internalType": "address",
          "name": "newOwner",
          "type": "address"
        }
      ],
      "name": "transferOwnership",
      "outputs": [],
      "stateMutability": "nonpayable",
      "type": "function"
    }
  ],
  "bytecode": "0x60806040523480156200001157600080fd5b506040518060400160405280601d81526020017f50726f6f6641492056657269666961626c652043726564656e7469616c0000008152506040518060400160405280600581526020017f50524f4f4600000000000000000000000000000000000000000000000000000081525081600090816200008f919062000412565b508060019081620000a1919062000412565b505050620000c4620000b8620000ca60201b60201c565b620000d260201b60201c565b620004f9565b600033905090565b6000600a60009054906101000a900473ffffffffffffffffffffffffffffffffffffffff16905081600a60006101000a81548173ffffffffffffffffffffffffffffffffffffffff021916908373ffffffffffffffffffffffffffffffffffffffff1602179055508173ffffffffffffffffffffffffffffffffffffffff168173ffffffffffffffffffffffffffffffffffffffff167f8be0079c531659141344cd1fd0a4f28419497f9722a3daafe3b4186f6b6457e060405160405180910390a35050565b600081519050919050565b7f4e487b7100000000000000000000000000000000000000000000000000000000600052604160045260246000fd5b7f4e487b7100000000000000000000000000000000000000000000000000000000600052602260045260246000fd5b600060028204905060018216806200021a57607f821691505b60208210810362000230576200022f620001d2565b5b50919050565b60008190508160005260206000209050919050565b60006020601f8301049050919050565b600082821b905092915050565b6000600883026200029a7fffffffffffffffffffffffffffffffffffffffffffffffffffffffffffffffff826200025b565b620002a686836200025b565b95508019841693508086168417925050509392505050565b6000819050919050565b6000819050919050565b6000620002f3620002ed620002e784620002be565b620002c8565b620002be565b9050919050565b6000819050919050565b6200030f83620002d2565b620003276200031e82620002fa565b84845462000268565b825550505050565b600090565b6200033e6200032f565b6200034b81848462000304565b505050565b5b8181101562000373576200036760008262000334565b60018101905062000351565b5050565b601f821115620003c2576200038c8162000236565b62000397846200024b565b81016020851015620003a7578190505b620003bf620003b6856200024b565b83018262000350565b50505b505050565b600082821c905092915050565b6000620003e760001984600802620003c7565b1980831691505092915050565b6000620004028383620003d4565b9150826002028217905092915050565b6200041d8262000198565b67ffffffffffffffff811115620004395762000438620001a3565b5b62000445825462000201565b6200045282828562000377565b600060209050601f8311600181146200048a576000841562000475578287015190505b620004818582620003f4565b865550620004f1565b601f1984166200049a8662000236565b60005b82811015620004c4578489015182556001820191506020850194506020810190506200049d565b86831015620004e45784890151620004e0601f891682620003d4565b8355505b6001600288020188555050505b505050505050565b615c0e80620005096000396000f3fe608060405234801561001057600080fd5b50600436106102065760003560e01c80636da48b9a1161011a578063c5014564116100ad578063e0574e3f1161007c578063e0574e3f14610677578063e22cb438146106ab578063e985e9c5146106db578063f2fde38b1461070b578063f59b2e001461072757610206565b8063c5014564146105b6578063c87b56dd146105e6578063c96015db14610616578063de58bdaa1461064657610206565b806395d89b41116100e957806395d89b4114610544578063991dd29a14610562578063a22cb4651461057e578063b88d4fde1461059a57610206565b80636da48b9a146104bc57806370a08231146104ec578063715018a61461051c5780638da5cb5b1461052657610206565b806323b872dd1161019d57806342842e0e1161016c57806342842e0e146103e0578063441aca36146103fc5780634b2a4ccd1461042c5780634f6ccce71461045c5780636352211e1461048c57610206565b806323b872dd146103485780632f745c59146103645780632fd271f71461039457806332307f01146103c457610206565b8063095ea7b3116101d9578063095ea7b3146102c157806318160ddd146102dd5780631b87278d146102fb57806321359a8a1461031757610206565b806301ffc9a71461020b5780630307f9c21461023b57806306fdde0314610273578063081812fc14610291575b600080fd5b61022560048036038101906102209190613c82565b610757565b6040516102329190613cca565b60405180910390f35b61025560048036038101906102509190613d1b565b6107d1565b60405161026a99989796959493929190613e28565b60405180910390f35b61027b610a6c565b6040516102889190613ed1565b60405180910390f35b6102ab60048036038101906102a69190613d1b565b610afe565b6040516102b89190613ef3565b60405180910390f35b6102db60048036038101906102d69190613f3a565b610b44565b005b6102e5610c5b565b6040516102f29190613f7a565b60405180910390f35b61031560048036038101906103109190613d1b565b610c68565b005b610331600480360381019061032c9190613f95565b610d17565b60405161033f929190613fc2565b60405180910390f35b610362600480360381019061035d9190613feb565b610e1e565b005b61037e60048036038101906103799190613f3a565b610e7e565b60405161038b9190613f7a565b60405180910390f35b6103ae60048036038101906103a99190614173565b610f23565b6040516103bb9190613f7a565b60405180910390f35b6103de60048036038101906103d9919061425e565b6112ce565b005b6103fa60048036038101906103f59190613feb565b61156e565b005b610416600480360381019061041191906142ba565b61158e565b6040516104239190613f7a565b60405180910390f35b61044660048036038101906104419190613f95565b6116d9565b6040516104539190614447565b60405180910390f35b61047660048036038101906104719190613d1b565b611773565b6040516104839190613f7a565b60405180910390f35b6104a660048036038101906104a19190613d1b565b6117e4565b6040516104b39190613ef3565b60405180910390f35b6104d660048036038101906104d19190613d1b565b61186a565b6040516104e39190613cca565b60405180910390f35b61050660048036038101906105019190613f95565b6118af565b6040516105139190613f7a565b60405180910390f35b610524611966565b005b61052e61197a565b60405161053b9190613ef3565b60405180910390f35b61054c6119a4565b6040516105599190613ed1565b60405180910390f35b61057c60048036038101906105779190614469565b611a36565b005b610598600480360381019061059391906144f1565b611b57565b005b6105b460048036038101906105af91906145d2565b611b6d565b005b6105d060048036038101906105cb9190613f95565b611bcf565b6040516105dd9190614859565b60405180910390f35b61060060048036038101906105fb9190613d1b565b611f8f565b60405161060d9190613ed1565b60405180910390f35b610630600480360381019061062b9190613f95565b612082565b60405161063d9190614447565b60405180910390f35b610660600480360381019061065b9190613f95565b61218b565b60405161066e92919061487b565b60405180910390f35b610691600480360381019061068c9190613d1b565b6121af565b6040516106a29594939291906148a4565b60405180910390f35b6106c560048036038101906106c09190613f95565b612302565b6040516106d29190614859565b60405180910390f35b6106f560048036038101906106f09190614905565b61274d565b6040516107029190613cca565b60405180910390f35b61072560048036038101906107209190613f95565b6127e1565b005b610741600480360381019061073c9190613f95565b612864565b60405161074e9190613cca565b60405180910390f35b60007f780e9d63000000000000000000000000000000000000000000000000000000007bffffffffffffffffffffffffffffffffffffffffffffffffffffffff1916827bffffffffffffffffffffffffffffffffffffffffffffffffffffffff191614806107ca57506107c982612884565b5b9050919050565b600e6020528060005260406000206000915090508060000160009054906101000a900473ffffffffffffffffffffffffffffffffffffffff169080600101805461081a90614974565b80601f016020809104026020016040519081016040528092919081815260200182805461084690614974565b80156108935780601f1061086857610100808354040283529160200191610893565b820191906000526020600020905b81548152906001019060200180831161087657829003601f168201915b5050505050908060020180546108a890614974565b80601f01602080910402602001604051908101604052809291908181526020018280546108d490614974565b80156109215780601f106108f657610100808354040283529160200191610921565b820191906000526020600020905b81548152906001019060200180831161090457829003601f168201915b50505050509080600301549080600401549080600501805461094290614974565b80601f016020809104026020016040519081016040528092919081815260200182805461096e90614974565b80156109bb5780601f10610990576101008083540402835291602001916109bb565b820191906000526020600020905b81548152906001019060200180831161099e57829003601f168201915b5050505050908060060160009054906101000a900460ff16908060070180546109e390614974565b80601f0160208091040260200160405190810160405280929190818152602001828054610a0f90614974565b8015610a5c5780601f10610a3157610100808354040283529160200191610a5c565b820191906000526020600020905b815481529060010190602001808311610a3f57829003601f168201915b5050505050908060080154905089565b606060008054610a7b90614974565b80601f0160208091040260200160405190810160405280929190818152602001828054610aa790614974565b8015610af45780601f10610ac957610100808354040283529160200191610af4565b820191906000526020600020905b815481529060010190602001808311610ad757829003601f168201915b5050505050905090565b6000610b0982612966565b6004600083815260200190815260200160002060009054906101000a900473ffffffffffffffffffffffffffffffffffffffff169050919050565b6000610b4f826117e4565b90508073ffffffffffffffffffffffffffffffffffffffff168373ffffffffffffffffffffffffffffffffffffffff1603610bbf576040517f08c379a0000000000000000000000000000000000000000000000000000000008152600401610bb690614a17565b60405180910390fd5b8073ffffffffffffffffffffffffffffffffffffffff16610bde6129b1565b73ffffffffffffffffffffffffffffffffffffffff161480610c0d5750610c0c81610c076129b1565b61274d565b5b610c4c576040517f08c379a0000000000000000000000000000000000000000000000000000000008152600401610c4390614aa9565b60405180910390fd5b610c5683836129b9565b505050565b6000600880549050905090565b610c70612a72565b610c7981612af0565b610cb8576040517f08c379a0000000000000000000000000000000000000000000000000000000008152600401610caf90614b3b565b60405180910390fd5b6001600c600083815260200190815260200160002060040160006101000a81548160ff021916908315150217905550807f0d47d5695004d2a4180ebb40037756439184993a0d1c6d4a8ff3a6aa9325607460405160405180910390a250565b6000806000610d25846116d9565b90506000805b8251811015610e0d576000838281518110610d4957610d48614b5b565b5b60200260200101519050600e600082815260200190815260200160002060060160009054906101000a900460ff1615610df9576040518060400160405280600981526020017f66756c6c2d74696d65000000000000000000000000000000000000000000000081525080519060200120600e6000838152602001908152602001600020600501604051610ddc9190614c2d565b604051809103902003610df8578280610df490614c73565b9350505b5b508080610e0590614c73565b915050610d2b565b506001811193508092505050915091565b610e2f610e296129b1565b82612b31565b610e6e576040517f08c379a0000000000000000000000000000000000000000000000000000000008152600401610e6590614d2d565b60405180910390fd5b610e79838383612bc6565b505050565b6000610e89836118af565b8210610eca576040517f08c379a0000000000000000000000000000000000000000000000000000000008152600401610ec190614dbf565b60405180910390fd5b600660008473ffffffffffffffffffffffffffffffffffffffff1673ffffffffffffffffffffffffffffffffffffffff168152602001908152602001600020600083815260200190815260200160002054905092915050565b6000601060003373ffffffffffffffffffffffffffffffffffffffff1673ffffffffffffffffffffffffffffffffffffffff16815260200190815260200160002060009054906101000a900460ff16610fb1576040517f08c379a0000000000000000000000000000000000000000000000000000000008152600401610fa890614e51565b60405180910390fd5b610fbb600b612cb0565b6000610fc7600b612cc6565b9050610fd38782612cd4565b82600d60008381526020019081526020016000209081610ff3919061501d565b506040518061012001604052803373ffffffffffffffffffffffffffffffffffffffff16815260200187815260200186815260200142815260200160008152602001858152602001600115158152602001604051806020016040528060008152508152602001605f815250600e600083815260200190815260200160002060008201518160000160006101000a81548173ffffffffffffffffffffffffffffffffffffffff021916908373ffffffffffffffffffffffffffffffffffffffff16021790555060208201518160010190816110cd919061501d565b5060408201518160020190816110e3919061501d565b50606082015181600301556080820151816004015560a082015181600501908161110d919061501d565b5060c08201518160060160006101000a81548160ff02191690831515021790555060e0820151816007019081611143919061501d565b506101008201518160080155905050600f60008873ffffffffffffffffffffffffffffffffffffffff1673ffffffffffffffffffffffffffffffffffffffff168152602001908152602001600020600001819080600181540180825580915050600190039060005260206000200160009091909190915055600f60008873ffffffffffffffffffffffffffffffffffffffff1673ffffffffffffffffffffffffffffffffffffffff168152602001908152602001600020600101600081548092919061120e90614c73565b919050555042600f60008973ffffffffffffffffffffffffffffffffffffffff1673ffffffffffffffffffffffffffffffffffffffff168152602001908152602001600020600201819055503373ffffffffffffffffffffffffffffffffffffffff168773ffffffffffffffffffffffffffffffffffffffff167f0ebc7cbe60541d01e227ed88f1436348b4145c707da41c1f1aaa665b049d7b5483886040516112b99291906150ef565b60405180910390a38091505095945050505050565b6000600e6000848152602001908152602001600020905060006112f0846117e4565b90508160000160009054906101000a900473ffffffffffffffffffffffffffffffffffffffff1673ffffffffffffffffffffffffffffffffffffffff163373ffffffffffffffffffffffffffffffffffffffff16148061137b57508073ffffffffffffffffffffffffffffffffffffffff163373ffffffffffffffffffffffffffffffffffffffff16145b6113ba576040517f08c379a00000000000000000000000000000000000000000000000000000000081526004016113b190615191565b60405180910390fd5b8160060160009054906101000a900460ff1661140b576040517f08c379a000000000000000000000000000000000000000000000000000000000815260040161140290615223565b60405180910390fd5b42826004018190555060008260060160006101000a81548160ff02191690831515021790555082826007019081611442919061501d565b506000600f60008373ffffffffffffffffffffffffffffffffffffffff1673ffffffffffffffffffffffffffffffffffffffff1681526020019081526020016000206001015411156114e757600f60008273ffffffffffffffffffffffffffffffffffffffff1673ffffffffffffffffffffffffffffffffffffffff16815260200190815260200160002060010160008154809291906114e190615243565b91905055505b42600f60008373ffffffffffffffffffffffffffffffffffffffff1673ffffffffffffffffffffffffffffffffffffffff16815260200190815260200160002060020181905550837fa928265c91242694e82b7ccde81674d331f2428c4869f6995328ceacca30592542856040516115609291906150ef565b60405180910390a250505050565b61158983838360405180602001604052806000815250611b6d565b505050565b6000611598612a72565b6115a2600b612cb0565b60006115ae600b612cc6565b90506115ba8782612cd4565b82600d600083815260200190815260200160002090816115da919061501d565b506040518060a0016040528087815260200186815260200185815260200142815260200160001515815250600c6000838152602001908152602001600020600082015181600001908161162d919061501d565b506020820151816001019081611643919061501d565b50604082015181600201556060820151816003015560808201518160040160006101000a81548160ff021916908315150217905550905050808773ffffffffffffffffffffffffffffffffffffffff167f7b0f527ad5c65bd61f1c83e3333ed0c259a3d994e78ab98e10c3f296a79c51ef88876040516116c492919061526c565b60405180910390a38091505095945050505050565b6060600f60008373ffffffffffffffffffffffffffffffffffffffff1673ffffffffffffffffffffffffffffffffffffffff16815260200190815260200160002060000180548060200260200160405190810160405280929190818152602001828054801561176757602002820191906000526020600020905b815481526020019060010190808311611753575b50505050509050919050565b600061177d610c5b565b82106117be576040517f08c379a00000000000000000000000000000000000000000000000000000000081526004016117b59061530e565b60405180910390fd5b600882815481106117d2576117d1614b5b565b5b90600052602060002001549050919050565b6000806117f083612cf2565b9050600073ffffffffffffffffffffffffffffffffffffffff168173ffffffffffffffffffffffffffffffffffffffff1603611861576040517f08c379a00000000000000000000000000000000000000000000000000000000081526004016118589061537a565b60405180910390fd5b80915050919050565b600061187582612af0565b61188257600090506118aa565b600c600083815260200190815260200160002060040160009054906101000a900460ff161590505b919050565b60008073ffffffffffffffffffffffffffffffffffffffff168273ffffffffffffffffffffffffffffffffffffffff160361191f576040517f08c379a00000000000000000000000000000000000000000000000000000000081526004016119169061540c565b60405180910390fd5b600360008373ffffffffffffffffffffffffffffffffffffffff1673ffffffffffffffffffffffffffffffffffffffff168152602001908152602001600020549050919050565b61196e612a72565b6119786000612d2f565b565b6000600a60009054906101000a900473ffffffffffffffffffffffffffffffffffffffff16905090565b6060600180546119b390614974565b80601f01602080910402602001604051908101604052809291908181526020018280546119df90614974565b8015611a2c5780601f10611a0157610100808354040283529160200191611a2c565b820191906000526020600020905b815481529060010190602001808311611a0f57829003601f168201915b5050505050905090565b611a3e612a72565b600073ffffffffffffffffffffffffffffffffffffffff168273ffffffffffffffffffffffffffffffffffffffff1603611aad576040517f08c379a0000000000000000000000000000000000000000000000000000000008152600401611aa49061549e565b60405180910390fd5b6001601060008473ffffffffffffffffffffffffffffffffffffffff1673ffffffffffffffffffffffffffffffffffffffff16815260200190815260200160002060006101000a81548160ff0219169083151502179055508173ffffffffffffffffffffffffffffffffffffffff167f6087d5798d93d5dc77c9bf8f5eb9b9bfa05f505017a10fa776b18ff0d14bf65582604051611b4b9190613ed1565b60405180910390a25050565b611b69611b626129b1565b8383612df5565b5050565b611b7e611b786129b1565b83612b31565b611bbd576040517f08c379a0000000000000000000000000000000000000000000000000000000008152600401611bb490614d2d565b60405180910390fd5b611bc984848484612f61565b50505050565b60606000611bdc836116d9565b90506000815167ffffffffffffffff811115611bfb57611bfa614048565b5b604051908082528060200260200182016040528015611c3457816020015b611c21613bb2565b815260200190600190039081611c195790505b50905060005b8251811015611f8457600e6000848381518110611c5a57611c59614b5b565b5b60200260200101518152602001908152602001600020604051806101200160405290816000820160009054906101000a900473ffffffffffffffffffffffffffffffffffffffff1673ffffffffffffffffffffffffffffffffffffffff1673ffffffffffffffffffffffffffffffffffffffff168152602001600182018054611ce290614974565b80601f0160208091040260200160405190810160405280929190818152602001828054611d0e90614974565b8015611d5b5780601f10611d3057610100808354040283529160200191611d5b565b820191906000526020600020905b815481529060010190602001808311611d3e57829003601f168201915b50505050508152602001600282018054611d7490614974565b80601f0160208091040260200160405190810160405280929190818152602001828054611da090614974565b8015611ded5780601f10611dc257610100808354040283529160200191611ded565b820191906000526020600020905b815481529060010190602001808311611dd057829003601f168201915b505050505081526020016003820154815260200160048201548152602001600582018054611e1a90614974565b80601f0160208091040260200160405190810160405280929190818152602001828054611e4690614974565b8015611e935780601f10611e6857610100808354040283529160200191611e93565b820191906000526020600020905b815481529060010190602001808311611e7657829003601f168201915b505050505081526020016006820160009054906101000a900460ff16151515158152602001600782018054611ec790614974565b80601f0160208091040260200160405190810160405280929190818152602001828054611ef390614974565b8015611f405780601f10611f1557610100808354040283529160200191611f40565b820191906000526020600020905b815481529060010190602001808311611f2357829003601f168201915b50505050508152602001600882015481525050828281518110611f6657611f65614b5b565b5b60200260200101819052508080611f7c90614c73565b915050611c3a565b508092505050919050565b6060611f9a82612af0565b611fd9576040517f08c379a0000000000000000000000000000000000000000000000000000000008152600401611fd090615530565b60405180910390fd5b6000600d60008481526020019081526020016000208054611ff990614974565b80601f016020809104026020016040519081016040528092919081815260200182805461202590614974565b80156120725780601f1061204757610100808354040283529160200191612072565b820191906000526020600020905b81548152906001019060200180831161205557829003601f168201915b5050505050905080915050919050565b6060600061208f836118af565b9050600081036120eb57600067ffffffffffffffff8111156120b4576120b3614048565b5b6040519080825280602002602001820160405280156120e25781602001602082028036833780820191505090505b50915050612186565b60008167ffffffffffffffff81111561210757612106614048565b5b6040519080825280602002602001820160405280156121355781602001602082028036833780820191505090505b50905060005b8281101561217f5761214d8582610e7e565b8282815181106121605761215f614b5b565b5b602002602001018181525050808061217790614c73565b91505061213b565b5080925050505b919050565b600f6020528060005260406000206000915090508060010154908060020154905082565b600c6020528060005260406000206000915090508060000180546121d290614974565b80601f01602080910402602001604051908101604052809291908181526020018280546121fe90614974565b801561224b5780601f106122205761010080835404028352916020019161224b565b820191906000526020600020905b81548152906001019060200180831161222e57829003601f168201915b50505050509080600101805461226090614974565b80601f016020809104026020016040519081016040528092919081815260200182805461228c90614974565b80156122d95780601f106122ae576101008083540402835291602001916122d9565b820191906000526020600020905b8154815290600101906020018083116122bc57829003601f168201915b5050505050908060020154908060030154908060040160009054906101000a900460ff16905085565b6060600061230f836116d9565b90506000600f60008573ffffffffffffffffffffffffffffffffffffffff1673ffffffffffffffffffffffffffffffffffffffff1681526020019081526020016000206001015467ffffffffffffffff81111561236f5761236e614048565b5b6040519080825280602002602001820160405280156123a857816020015b612395613bb2565b81526020019060019003908161238d5790505b5090506000805b83518110156127415760008482815181106123cd576123cc614b5b565b5b60200260200101519050600e600082815260200190815260200160002060060160009054906101000a900460ff161561272d57835183101561272c57600e6000828152602001908152602001600020604051806101200160405290816000820160009054906101000a900473ffffffffffffffffffffffffffffffffffffffff1673ffffffffffffffffffffffffffffffffffffffff1673ffffffffffffffffffffffffffffffffffffffff16815260200160018201805461248e90614974565b80601f01602080910402602001604051908101604052809291908181526020018280546124ba90614974565b80156125075780601f106124dc57610100808354040283529160200191612507565b820191906000526020600020905b8154815290600101906020018083116124ea57829003601f168201915b5050505050815260200160028201805461252090614974565b80601f016020809104026020016040519081016040528092919081815260200182805461254c90614974565b80156125995780601f1061256e57610100808354040283529160200191612599565b820191906000526020600020905b81548152906001019060200180831161257c57829003601f168201915b5050505050815260200160038201548152602001600482015481526020016005820180546125c690614974565b80601f01602080910402602001604051908101604052809291908181526020018280546125f290614974565b801561263f5780601f106126145761010080835404028352916020019161263f565b820191906000526020600020905b81548152906001019060200180831161262257829003601f168201915b505050505081526020016006820160009054906101000a900460ff1615151515815260200160078201805461267390614974565b80601f016020809104026020016040519081016040528092919081815260200182805461269f90614974565b80156126ec5780601f106126c1576101008083540402835291602001916126ec565b820191906000526020600020905b8154815290600101906020018083116126cf57829003601f168201915b5050505050815260200160088201548152505084848151811061271257612711614b5b565b5b6020026020010181905250828061272890614c73565b9350505b5b50808061273990614c73565b9150506123af565b50819350505050919050565b6000600560008473ffffffffffffffffffffffffffffffffffffffff1673ffffffffffffffffffffffffffffffffffffffff16815260200190815260200160002060008373ffffffffffffffffffffffffffffffffffffffff1673ffffffffffffffffffffffffffffffffffffffff16815260200190815260200160002060009054906101000a900460ff16905092915050565b6127e9612a72565b600073ffffffffffffffffffffffffffffffffffffffff168173ffffffffffffffffffffffffffffffffffffffff1603612858576040517f08c379a000000000000000000000000000000000000000000000000000000000815260040161284f906155c2565b60405180910390fd5b61286181612d2f565b50565b60106020528060005260406000206000915054906101000a900460ff1681565b60007f80ac58cd000000000000000000000000000000000000000000000000000000007bffffffffffffffffffffffffffffffffffffffffffffffffffffffff1916827bffffffffffffffffffffffffffffffffffffffffffffffffffffffff1916148061294f57507f5b5e139f000000000000000000000000000000000000000000000000000000007bffffffffffffffffffffffffffffffffffffffffffffffffffffffff1916827bffffffffffffffffffffffffffffffffffffffffffffffffffffffff1916145b8061295f575061295e82612fbd565b5b9050919050565b61296f81612af0565b6129ae576040517f08c379a00000000000000000000000000000000000000000000000000000000081526004016129a59061537a565b60405180910390fd5b50565b600033905090565b816004600083815260200190815260200160002060006101000a81548173ffffffffffffffffffffffffffffffffffffffff021916908373ffffffffffffffffffffffffffffffffffffffff160217905550808273ffffffffffffffffffffffffffffffffffffffff16612a2c836117e4565b73ffffffffffffffffffffffffffffffffffffffff167f8c5be1e5ebec7d5bd14f71427d1e84f3dd0314c0f7b2291e5b200ac8c7c3b92560405160405180910390a45050565b612a7a6129b1565b73ffffffffffffffffffffffffffffffffffffffff16612a9861197a565b73ffffffffffffffffffffffffffffffffffffffff1614612aee576040517f08c379a0000000000000000000000000000000000000000000000000000000008152600401612ae59061562e565b60405180910390fd5b565b60008073ffffffffffffffffffffffffffffffffffffffff16612b1283612cf2565b73ffffffffffffffffffffffffffffffffffffffff1614159050919050565b600080612b3d836117e4565b90508073ffffffffffffffffffffffffffffffffffffffff168473ffffffffffffffffffffffffffffffffffffffff161480612b7f5750612b7e818561274d565b5b80612bbd57508373ffffffffffffffffffffffffffffffffffffffff16612ba584610afe565b73ffffffffffffffffffffffffffffffffffffffff16145b91505092915050565b600073ffffffffffffffffffffffffffffffffffffffff16600e600083815260200190815260200160002060000160009054906101000a900473ffffffffffffffffffffffffffffffffffffffff1673ffffffffffffffffffffffffffffffffffffffff1614612ca057600073ffffffffffffffffffffffffffffffffffffffff168373ffffffffffffffffffffffffffffffffffffffff1614612c9f576040517f08c379a0000000000000000000000000000000000000000000000000000000008152600401612c96906156e6565b60405180910390fd5b5b612cab838383613027565b505050565b6001816000016000828254019250508190555050565b600081600001549050919050565b612cee828260405180602001604052806000815250613320565b5050565b60006002600083815260200190815260200160002060009054906101000a900473ffffffffffffffffffffffffffffffffffffffff169050919050565b6000600a60009054906101000a900473ffffffffffffffffffffffffffffffffffffffff16905081600a60006101000a81548173ffffffffffffffffffffffffffffffffffffffff021916908373ffffffffffffffffffffffffffffffffffffffff1602179055508173ffffffffffffffffffffffffffffffffffffffff168173ffffffffffffffffffffffffffffffffffffffff167f8be0079c531659141344cd1fd0a4f28419497f9722a3daafe3b4186f6b6457e060405160405180910390a35050565b8173ffffffffffffffffffffffffffffffffffffffff168373ffffffffffffffffffffffffffffffffffffffff1603612e63576040517f08c379a0000000000000000000000000000000000000000000000000000000008152600401612e5a90615752565b60405180910390fd5b80600560008573ffffffffffffffffffffffffffffffffffffffff1673ffffffffffffffffffffffffffffffffffffffff16815260200190815260200160002060008473ffffffffffffffffffffffffffffffffffffffff1673ffffffffffffffffffffffffffffffffffffffff16815260200190815260200160002060006101000a81548160ff0219169083151502179055508173ffffffffffffffffffffffffffffffffffffffff168373ffffffffffffffffffffffffffffffffffffffff167f17307eab39ab6107e8899845ad3d59bd9653f200f220920489ca2b5937696c3183604051612f549190613cca565b60405180910390a3505050565b612f6c848484612bc6565b612f788484848461337b565b612fb7576040517f08c379a0000000000000000000000000000000000000000000000000000000008152600401612fae906157e4565b60405180910390fd5b50505050565b60007f01ffc9a7000000000000000000000000000000000000000000000000000000007bffffffffffffffffffffffffffffffffffffffffffffffffffffffff1916827bffffffffffffffffffffffffffffffffffffffffffffffffffffffff1916149050919050565b8273ffffffffffffffffffffffffffffffffffffffff16613047826117e4565b73ffffffffffffffffffffffffffffffffffffffff161461309d576040517f08c379a000000000000000000000000000000000000000000000000000000000815260040161309490615876565b60405180910390fd5b600073ffffffffffffffffffffffffffffffffffffffff168273ffffffffffffffffffffffffffffffffffffffff160361310c576040517f08c379a000000000000000000000000000000000000000000000000000000000815260040161310390615908565b60405180910390fd5b6131198383836001613502565b8273ffffffffffffffffffffffffffffffffffffffff16613139826117e4565b73ffffffffffffffffffffffffffffffffffffffff161461318f576040517f08c379a000000000000000000000000000000000000000000000000000000000815260040161318690615876565b60405180910390fd5b6004600082815260200190815260200160002060006101000a81549073ffffffffffffffffffffffffffffffffffffffff02191690556001600360008573ffffffffffffffffffffffffffffffffffffffff1673ffffffffffffffffffffffffffffffffffffffff168152602001908152602001600020600082825403925050819055506001600360008473ffffffffffffffffffffffffffffffffffffffff1673ffffffffffffffffffffffffffffffffffffffff16815260200190815260200160002060008282540192505081905550816002600083815260200190815260200160002060006101000a81548173ffffffffffffffffffffffffffffffffffffffff021916908373ffffffffffffffffffffffffffffffffffffffff160217905550808273ffffffffffffffffffffffffffffffffffffffff168473ffffffffffffffffffffffffffffffffffffffff167fddf252ad1be2c89b69c2b068fc378daa952ba7f163c4a11628f55a4df523b3ef60405160405180910390a461331b8383836001613660565b505050565b61332a8383613666565b613337600084848461337b565b613376576040517f08c379a000000000000000000000000000000000000000000000000000000000815260040161336d906157e4565b60405180910390fd5b505050565b600061339c8473ffffffffffffffffffffffffffffffffffffffff16613883565b156134f5578373ffffffffffffffffffffffffffffffffffffffff1663150b7a026133c56129b1565b8786866040518563ffffffff1660e01b81526004016133e7949392919061597d565b6020604051808303816000875af192505050801561342357506040513d601f19601f8201168201806040525081019061342091906159de565b60015b6134a5573d8060008114613453576040519150601f19603f3d011682016040523d82523d6000602084013e613458565b606091505b50600081510361349d576040517f08c379a0000000000000000000000000000000000000000000000000000000008152600401613494906157e4565b60405180910390fd5b805181602001fd5b63150b7a0260e01b7bffffffffffffffffffffffffffffffffffffffffffffffffffffffff1916817bffffffffffffffffffffffffffffffffffffffffffffffffffffffff1916149150506134fa565b600190505b949350505050565b61350e848484846138a6565b6001811115613552576040517f08c379a000000000000000000000000000000000000000000000000000000000815260040161354990615a7d565b60405180910390fd5b6000829050600073ffffffffffffffffffffffffffffffffffffffff168573ffffffffffffffffffffffffffffffffffffffff160361359957613594816138ac565b6135d8565b8373ffffffffffffffffffffffffffffffffffffffff168573ffffffffffffffffffffffffffffffffffffffff16146135d7576135d685826138f5565b5b5b600073ffffffffffffffffffffffffffffffffffffffff168473ffffffffffffffffffffffffffffffffffffffff160361361a5761361581613a62565b613659565b8473ffffffffffffffffffffffffffffffffffffffff168473ffffffffffffffffffffffffffffffffffffffff1614613658576136578482613b33565b5b5b5050505050565b50505050565b600073ffffffffffffffffffffffffffffffffffffffff168273ffffffffffffffffffffffffffffffffffffffff16036136d5576040517f08c379a00000000000000000000000000000000000000000000000000000000081526004016136cc90615ae9565b60405180910390fd5b6136de81612af0565b1561371e576040517f08c379a000000000000000000000000000000000000000000000000000000000815260040161371590615b55565b60405180910390fd5b61372c600083836001613502565b61373581612af0565b15613775576040517f08c379a000000000000000000000000000000000000000000000000000000000815260040161376c90615b55565b60405180910390fd5b6001600360008473ffffffffffffffffffffffffffffffffffffffff1673ffffffffffffffffffffffffffffffffffffffff16815260200190815260200160002060008282540192505081905550816002600083815260200190815260200160002060006101000a81548173ffffffffffffffffffffffffffffffffffffffff021916908373ffffffffffffffffffffffffffffffffffffffff160217905550808273ffffffffffffffffffffffffffffffffffffffff16600073ffffffffffffffffffffffffffffffffffffffff167fddf252ad1be2c89b69c2b068fc378daa952ba7f163c4a11628f55a4df523b3ef60405160405180910390a461387f600083836001613660565b5050565b6000808273ffffffffffffffffffffffffffffffffffffffff163b119050919050565b50505050565b6008805490506009600083815260200190815260200160002081905550600881908060018154018082558091505060019003906000526020600020016000909190919091505550565b60006001613902846118af565b61390c9190615b75565b90506000600760008481526020019081526020016000205490508181146139f1576000600660008673ffffffffffffffffffffffffffffffffffffffff1673ffffffffffffffffffffffffffffffffffffffff168152602001908152602001600020600084815260200190815260200160002054905080600660008773ffffffffffffffffffffffffffffffffffffffff1673ffffffffffffffffffffffffffffffffffffffff168152602001908152602001600020600084815260200190815260200160002081905550816007600083815260200190815260200160002081905550505b6007600084815260200190815260200160002060009055600660008573ffffffffffffffffffffffffffffffffffffffff1673ffffffffffffffffffffffffffffffffffffffff16815260200190815260200160002060008381526020019081526020016000206000905550505050565b60006001600880549050613a769190615b75565b9050600060096000848152602001908152602001600020549050600060088381548110613aa657613aa5614b5b565b5b906000526020600020015490508060088381548110613ac857613ac7614b5b565b5b906000526020600020018190555081600960008381526020019081526020016000208190555060096000858152602001908152602001600020600090556008805480613b1757613b16615ba9565b5b6001900381819060005260206000200160009055905550505050565b6000613b3e836118af565b905081600660008573ffffffffffffffffffffffffffffffffffffffff1673ffffffffffffffffffffffffffffffffffffffff168152602001908152602001600020600083815260200190815260200160002081905550806007600084815260200190815260200160002081905550505050565b604051806101200160405280600073ffffffffffffffffffffffffffffffffffffffff168152602001606081526020016060815260200160008152602001600081526020016060815260200160001515815260200160608152602001600081525090565b6000604051905090565b600080fd5b600080fd5b60007fffffffff0000000000000000000000000000000000000000000000000000000082169050919050565b613c5f81613c2a565b8114613c6a57600080fd5b50565b600081359050613c7c81613c56565b92915050565b600060208284031215613c9857613c97613c20565b5b6000613ca684828501613c6d565b91505092915050565b60008115159050919050565b613cc481613caf565b82525050565b6000602082019050613cdf6000830184613cbb565b92915050565b6000819050919050565b613cf881613ce5565b8114613d0357600080fd5b50565b600081359050613d1581613cef565b92915050565b600060208284031215613d3157613d30613c20565b5b6000613d3f84828501613d06565b91505092915050565b600073ffffffffffffffffffffffffffffffffffffffff82169050919050565b6000613d7382613d48565b9050919050565b613d8381613d68565b82525050565b600081519050919050565b600082825260208201905092915050565b60005b83811015613dc3578082015181840152602081019050613da8565b60008484015250505050565b6000601f19601f8301169050919050565b6000613deb82613d89565b613df58185613d94565b9350613e05818560208601613da5565b613e0e81613dcf565b840191505092915050565b613e2281613ce5565b82525050565b600061012082019050613e3e600083018c613d7a565b8181036020830152613e50818b613de0565b90508181036040830152613e64818a613de0565b9050613e736060830189613e19565b613e806080830188613e19565b81810360a0830152613e928187613de0565b9050613ea160c0830186613cbb565b81810360e0830152613eb38185613de0565b9050613ec3610100830184613e19565b9a9950505050505050505050565b60006020820190508181036000830152613eeb8184613de0565b905092915050565b6000602082019050613f086000830184613d7a565b92915050565b613f1781613d68565b8114613f2257600080fd5b50565b600081359050613f3481613f0e565b92915050565b60008060408385031215613f5157613f50613c20565b5b6000613f5f85828601613f25565b9250506020613f7085828601613d06565b9150509250929050565b6000602082019050613f8f6000830184613e19565b92915050565b600060208284031215613fab57613faa613c20565b5b6000613fb984828501613f25565b91505092915050565b6000604082019050613fd76000830185613cbb565b613fe46020830184613e19565b9392505050565b60008060006060848603121561400457614003613c20565b5b600061401286828701613f25565b935050602061402386828701613f25565b925050604061403486828701613d06565b9150509250925092565b600080fd5b600080fd5b7f4e487b7100000000000000000000000000000000000000000000000000000000600052604160045260246000fd5b61408082613dcf565b810181811067ffffffffffffffff8211171561409f5761409e614048565b5b80604052505050565b60006140b2613c16565b90506140be8282614077565b919050565b600067ffffffffffffffff8211156140de576140dd614048565b5b6140e782613dcf565b9050602081019050919050565b82818337600083830152505050565b6000614116614111846140c3565b6140a8565b90508281526020810184848401111561413257614131614043565b5b61413d8482856140f4565b509392505050565b600082601f83011261415a5761415961403e565b5b813561416a848260208601614103565b91505092915050565b600080600080600060a0868803121561418f5761418e613c20565b5b600061419d88828901613f25565b955050602086013567ffffffffffffffff8111156141be576141bd613c25565b5b6141ca88828901614145565b945050604086013567ffffffffffffffff8111156141eb576141ea613c25565b5b6141f788828901614145565b935050606086013567ffffffffffffffff81111561421857614217613c25565b5b61422488828901614145565b925050608086013567ffffffffffffffff81111561424557614244613c25565b5b61425188828901614145565b9150509295509295909350565b6000806040838503121561427557614274613c20565b5b600061428385828601613d06565b925050602083013567ffffffffffffffff8111156142a4576142a3613c25565b5b6142b085828601614145565b9150509250929050565b600080600080600060a086880312156142d6576142d5613c20565b5b60006142e488828901613f25565b955050602086013567ffffffffffffffff81111561430557614304613c25565b5b61431188828901614145565b945050604086013567ffffffffffffffff81111561433257614331613c25565b5b61433e88828901614145565b935050606061434f88828901613d06565b925050608086013567ffffffffffffffff8111156143705761436f613c25565b5b61437c88828901614145565b9150509295509295909350565b600081519050919050565b600082825260208201905092915050565b6000819050602082019050919050565b6143be81613ce5565b82525050565b60006143d083836143b5565b60208301905092915050565b6000602082019050919050565b60006143f482614389565b6143fe8185614394565b9350614409836143a5565b8060005b8381101561443a57815161442188826143c4565b975061442c836143dc565b92505060018101905061440d565b5085935050505092915050565b6000602082019050818103600083015261446181846143e9565b905092915050565b600080604083850312156144805761447f613c20565b5b600061448e85828601613f25565b925050602083013567ffffffffffffffff8111156144af576144ae613c25565b5b6144bb85828601614145565b9150509250929050565b6144ce81613caf565b81146144d957600080fd5b50565b6000813590506144eb816144c5565b92915050565b6000806040838503121561450857614507613c20565b5b600061451685828601613f25565b9250506020614527858286016144dc565b9150509250929050565b600067ffffffffffffffff82111561454c5761454b614048565b5b61455582613dcf565b9050602081019050919050565b600061457561457084614531565b6140a8565b90508281526020810184848401111561459157614590614043565b5b61459c8482856140f4565b509392505050565b600082601f8301126145b9576145b861403e565b5b81356145c9848260208601614562565b91505092915050565b600080600080608085870312156145ec576145eb613c20565b5b60006145fa87828801613f25565b945050602061460b87828801613f25565b935050604061461c87828801613d06565b925050606085013567ffffffffffffffff81111561463d5761463c613c25565b5b614649878288016145a4565b91505092959194509250565b600081519050919050565b600082825260208201905092915050565b6000819050602082019050919050565b61468a81613d68565b82525050565b600082825260208201905092915050565b60006146ac82613d89565b6146b68185614690565b93506146c6818560208601613da5565b6146cf81613dcf565b840191505092915050565b6146e381613caf565b82525050565b6000610120830160008301516147026000860182614681565b506020830151848203602086015261471a82826146a1565b9150506040830151848203604086015261473482826146a1565b915050606083015161474960608601826143b5565b50608083015161475c60808601826143b5565b5060a083015184820360a086015261477482826146a1565b91505060c083015161478960c08601826146da565b5060e083015184820360e08601526147a182826146a1565b9150506101008301516147b86101008601826143b5565b508091505092915050565b60006147cf83836146e9565b905092915050565b6000602082019050919050565b60006147ef82614655565b6147f98185614660565b93508360208202850161480b85614671565b8060005b85811015614847578484038952815161482885826147c3565b9450614833836147d7565b925060208a0199505060018101905061480f565b50829750879550505050505092915050565b6000602082019050818103600083015261487381846147e4565b905092915050565b60006040820190506148906000830185613e19565b61489d6020830184613e19565b9392505050565b600060a08201905081810360008301526148be8188613de0565b905081810360208301526148d28187613de0565b90506148e16040830186613e19565b6148ee6060830185613e19565b6148fb6080830184613cbb565b9695505050505050565b6000806040838503121561491c5761491b613c20565b5b600061492a85828601613f25565b925050602061493b85828601613f25565b9150509250929050565b7f4e487b7100000000000000000000000000000000000000000000000000000000600052602260045260246000fd5b6000600282049050600182168061498c57607f821691505b60208210810361499f5761499e614945565b5b50919050565b7f4552433732313a20617070726f76616c20746f2063757272656e74206f776e6560008201527f7200000000000000000000000000000000000000000000000000000000000000602082015250565b6000614a01602183613d94565b9150614a0c826149a5565b604082019050919050565b60006020820190508181036000830152614a30816149f4565b9050919050565b7f4552433732313a20617070726f76652063616c6c6572206973206e6f7420746f60008201527f6b656e206f776e6572206f7220617070726f76656420666f7220616c6c000000602082015250565b6000614a93603d83613d94565b9150614a9e82614a37565b604082019050919050565b60006020820190508181036000830152614ac281614a86565b9050919050565b7f50726f6f6641493a2043726564656e7469616c2077697468207468697320494460008201527f20646f6573206e6f742065786973742e00000000000000000000000000000000602082015250565b6000614b25603083613d94565b9150614b3082614ac9565b604082019050919050565b60006020820190508181036000830152614b5481614b18565b9050919050565b7f4e487b7100000000000000000000000000000000000000000000000000000000600052603260045260246000fd5b600081905092915050565b60008190508160005260206000209050919050565b60008154614bb781614974565b614bc18186614b8a565b94506001821660008114614bdc5760018114614bf157614c24565b60ff1983168652811515820286019350614c24565b614bfa85614b95565b60005b83811015614c1c57815481890152600182019150602081019050614bfd565b838801955050505b50505092915050565b6000614c398284614baa565b915081905092915050565b7f4e487b7100000000000000000000000000000000000000000000000000000000600052601160045260246000fd5b6000614c7e82613ce5565b91507fffffffffffffffffffffffffffffffffffffffffffffffffffffffffffffffff8203614cb057614caf614c44565b5b600182019050919050565b7f4552433732313a2063616c6c6572206973206e6f7420746f6b656e206f776e6560008201527f72206f7220617070726f76656400000000000000000000000000000000000000602082015250565b6000614d17602d83613d94565b9150614d2282614cbb565b604082019050919050565b60006020820190508181036000830152614d4681614d0a565b9050919050565b7f455243373231456e756d657261626c653a206f776e657220696e646578206f7560008201527f74206f6620626f756e6473000000000000000000000000000000000000000000602082015250565b6000614da9602b83613d94565b9150614db482614d4d565b604082019050919050565b60006020820190508181036000830152614dd881614d9c565b9050919050565b7f50726f6f6641493a2043616c6c6572206973206e6f7420616e20617574686f7260008201527f697a656420636f6d70616e790000000000000000000000000000000000000000602082015250565b6000614e3b602c83613d94565b9150614e4682614ddf565b604082019050919050565b60006020820190508181036000830152614e6a81614e2e565b9050919050565b60008190508160005260206000209050919050565b60006020601f8301049050919050565b600082821b905092915050565b600060088302614ed37fffffffffffffffffffffffffffffffffffffffffffffffffffffffffffffffff82614e96565b614edd8683614e96565b95508019841693508086168417925050509392505050565b6000819050919050565b6000614f1a614f15614f1084613ce5565b614ef5565b613ce5565b9050919050565b6000819050919050565b614f3483614eff565b614f48614f4082614f21565b848454614ea3565b825550505050565b600090565b614f5d614f50565b614f68818484614f2b565b505050565b5b81811015614f8c57614f81600082614f55565b600181019050614f6e565b5050565b601f821115614fd157614fa281614e71565b614fab84614e86565b81016020851015614fba578190505b614fce614fc685614e86565b830182614f6d565b50505b505050565b600082821c905092915050565b6000614ff460001984600802614fd6565b1980831691505092915050565b600061500d8383614fe3565b9150826002028217905092915050565b61502682613d89565b67ffffffffffffffff81111561503f5761503e614048565b5b6150498254614974565b615054828285614f90565b600060209050601f8311600181146150875760008415615075578287015190505b61507f8582615001565b8655506150e7565b601f19841661509586614e71565b60005b828110156150bd57848901518255600182019150602085019450602081019050615098565b868310156150da57848901516150d6601f891682614fe3565b8355505b6001600288020188555050505b505050505050565b60006040820190506151046000830185613e19565b81810360208301526151168184613de0565b90509392505050565b7f50726f6f6641493a204e6f7420617574686f72697a656420746f20656e64207460008201527f68697320656d706c6f796d656e74000000000000000000000000000000000000602082015250565b600061517b602e83613d94565b91506151868261511f565b604082019050919050565b600060208201905081810360008301526151aa8161516e565b9050919050565b7f50726f6f6641493a20456d706c6f796d656e742068617320616c72656164792060008201527f656e646564000000000000000000000000000000000000000000000000000000602082015250565b600061520d602583613d94565b9150615218826151b1565b604082019050919050565b6000602082019050818103600083015261523c81615200565b9050919050565b600061524e82613ce5565b91506000820361526157615260614c44565b5b600182039050919050565b600060408201905081810360008301526152868185613de0565b90506152956020830184613e19565b9392505050565b7f455243373231456e756d657261626c653a20676c6f62616c20696e646578206f60008201527f7574206f6620626f756e64730000000000000000000000000000000000000000602082015250565b60006152f8602c83613d94565b91506153038261529c565b604082019050919050565b60006020820190508181036000830152615327816152eb565b9050919050565b7f4552433732313a20696e76616c696420746f6b656e2049440000000000000000600082015250565b6000615364601883613d94565b915061536f8261532e565b602082019050919050565b6000602082019050818103600083015261539381615357565b9050919050565b7f4552433732313a2061646472657373207a65726f206973206e6f74206120766160008201527f6c6964206f776e65720000000000000000000000000000000000000000000000602082015250565b60006153f6602983613d94565b91506154018261539a565b604082019050919050565b60006020820190508181036000830152615425816153e9565b9050919050565b7f50726f6f6641493a2043616e6e6f7420617574686f72697a6520746865207a6560008201527f726f206164647265737300000000000000000000000000000000000000000000602082015250565b6000615488602a83613d94565b91506154938261542c565b604082019050919050565b600060208201905081810360008301526154b78161547b565b9050919050565b7f4552433732314d657461646174613a2055524920717565727920666f72206e6f60008201527f6e6578697374656e7420746f6b656e0000000000000000000000000000000000602082015250565b600061551a602f83613d94565b9150615525826154be565b604082019050919050565b600060208201905081810360008301526155498161550d565b9050919050565b7f4f776e61626c653a206e6577206f776e657220697320746865207a65726f206160008201527f6464726573730000000000000000000000000000000000000000000000000000602082015250565b60006155ac602683613d94565b91506155b782615550565b604082019050919050565b600060208201905081810360008301526155db8161559f565b9050919050565b7f4f776e61626c653a2063616c6c6572206973206e6f7420746865206f776e6572600082015250565b6000615618602083613d94565b9150615623826155e2565b602082019050919050565b600060208201905081810360008301526156478161560b565b9050919050565b7f50726f6f664149205342543a20456d706c6f796d656e74204e4654732061726560008201527f20736f756c626f756e6420616e642063616e6e6f74206265207472616e73666560208201527f727265642e000000000000000000000000000000000000000000000000000000604082015250565b60006156d0604583613d94565b91506156db8261564e565b606082019050919050565b600060208201905081810360008301526156ff816156c3565b9050919050565b7f4552433732313a20617070726f766520746f2063616c6c657200000000000000600082015250565b600061573c601983613d94565b915061574782615706565b602082019050919050565b6000602082019050818103600083015261576b8161572f565b9050919050565b7f4552433732313a207472616e7366657220746f206e6f6e20455243373231526560008201527f63656976657220696d706c656d656e7465720000000000000000000000000000602082015250565b60006157ce603283613d94565b91506157d982615772565b604082019050919050565b600060208201905081810360008301526157fd816157c1565b9050919050565b7f4552433732313a207472616e736665722066726f6d20696e636f72726563742060008201527f6f776e6572000000000000000000000000000000000000000000000000000000602082015250565b6000615860602583613d94565b915061586b82615804565b604082019050919050565b6000602082019050818103600083015261588f81615853565b9050919050565b7f4552433732313a207472616e7366657220746f20746865207a65726f2061646460008201527f7265737300000000000000000000000000000000000000000000000000000000602082015250565b60006158f2602483613d94565b91506158fd82615896565b604082019050919050565b60006020820190508181036000830152615921816158e5565b9050919050565b600081519050919050565b600082825260208201905092915050565b600061594f82615928565b6159598185615933565b9350615969818560208601613da5565b61597281613dcf565b840191505092915050565b60006080820190506159926000830187613d7a565b61599f6020830186613d7a565b6159ac6040830185613e19565b81810360608301526159be8184615944565b905095945050505050565b6000815190506159d881613c56565b92915050565b6000602082840312156159f4576159f3613c20565b5b6000615a02848285016159c9565b91505092915050565b7f455243373231456e756d657261626c653a20636f6e736563757469766520747260008201527f616e7366657273206e6f7420737570706f727465640000000000000000000000602082015250565b6000615a67603583613d94565b9150615a7282615a0b565b604082019050919050565b60006020820190508181036000830152615a9681615a5a565b9050919050565b7f4552433732313a206d696e7420746f20746865207a65726f2061646472657373600082015250565b6000615ad3602083613d94565b9150615ade82615a9d565b602082019050919050565b60006020820190508181036000830152615b0281615ac6565b9050919050565b7f4552433732313a20746f6b656e20616c7265616479206d696e74656400000000600082015250565b6000615b3f601c83613d94565b9150615b4a82615b09565b602082019050919050565b60006020820190508181036000830152615b6e81615b32565b9050919050565b6000615b8082613ce5565b9150615b8b83613ce5565b9250828203905081811115615ba357615ba2614c44565b5b92915050565b7f4e487b7100000000000000000000000000000000000000000000000000000000600052603160045260246000fdfea2646970667358221220ab4b40474e052b17e3ea90e1b8f931141ffafad06c21a60e34d5c5541ced5c5964736f6c63430008140033",
  "linkReferences": {},
  "deployedLinkReferences": {}
}