{
  "_format": "hh-sol-artifact-1",
  "contractName": "ProofAI",
  "sourceName": "contracts/ProofAI.sol",
  "abi": [
    {
      "inputs": [],
      "stateMutability": "nonpayable",
      "type": "constructor"
    },
    {
      "anonymous": false,
      "inputs": [
        {
          "indexed": true,
          "internalType": "address",
          "name": "owner",
          "type": "address"
        },
        {
          "indexed": true,
          "internalType": "address",
          "name": "approved",
          "type": "address"
        },
        {
          "indexed": true,
          "internalType": "uint256",
          "name": "tokenId",
          "type": "uint256"
        }
      ],
      "name": "Approval",
      "type": "event"
    },
    {
      "anonymous": false,
      "inputs": [
        {
          "indexed": true,
          "internalType": "address",
          "name": "owner",
          "type": "address"
        },
        {
          "indexed": true,
          "internalType": "address",
          "name": "operator",
          "type": "address"
        },
        {
          "indexed": false,
          "internalType": "bool",
          "name": "approved",
          "type": "bool"
        }
      ],
      "name": "ApprovalForAll",
      "type": "event"
    },
    {
      "anonymous": false,
      "inputs": [
        {
          "indexed": true,
          "internalType": "address",
          "name": "user",
          "type": "address"
        },
        {
          "indexed": true,
          "internalType": "uint256",
          "name": "tokenId",
          "type": "uint256"
        },
        {
          "indexed": false,
          "internalType": "string",
          "name": "credentialType",
          "type": "string"
        },
        {
          "indexed": false,
          "internalType": "uint256",
          "name": "trustScore",
          "type": "uint256"
        }
      ],
      "name": "CredentialMinted",
      "type": "event"
    },
    {
      "anonymous": false,
      "inputs": [
        {
          "indexed": true,
          "internalType": "uint256",
          "name": "tokenId",
          "type": "uint256"
        }
      ],
      "name": "CredentialRevoked",
      "type": "event"
    },
    {
      "anonymous": false,
      "inputs": [
        {
          "indexed": true,
          "internalType": "address",
          "name": "previousOwner",
          "type": "address"
        },
        {
          "indexed": true,
          "internalType": "address",
          "name": "newOwner",
          "type": "address"
        }
      ],
      "name": "OwnershipTransferred",
      "type": "event"
    },
    {
      "anonymous": false,
      "inputs": [
        {
          "indexed": true,
          "internalType": "address",
          "name": "from",
          "type": "address"
        },
        {
          "indexed": true,
          "internalType": "address",
          "name": "to",
          "type": "address"
        },
        {
          "indexed": true,
          "internalType": "uint256",
          "name": "tokenId",
          "type": "uint256"
        }
      ],
      "name": "Transfer",
      "type": "event"
    },
    {
      "inputs": [
        {
          "internalType": "address",
          "name": "to",
          "type": "address"
        },
        {
          "internalType": "uint256",
          "name": "tokenId",
          "type": "uint256"
        }
      ],
      "name": "approve",
      "outputs": [],
      "stateMutability": "nonpayable",
      "type": "function"
    },
    {
      "inputs": [
        {
          "internalType": "address",
          "name": "owner",
          "type": "address"
        }
      ],
      "name": "balanceOf",
      "outputs": [
        {
          "internalType": "uint256",
          "name": "",
          "type": "uint256"
        }
      ],
      "stateMutability": "view",
      "type": "function"
    },
    {
      "inputs": [
        {
          "internalType": "uint256",
          "name": "",
          "type": "uint256"
        }
      ],
      "name": "credentials",
      "outputs": [
        {
          "internalType": "string",
          "name": "credentialType",
          "type": "string"
        },
        {
          "internalType": "string",
          "name": "issuerName",
          "type": "string"
        },
        {
          "internalType": "uint256",
          "name": "trustScore",
          "type": "uint256"
        },
        {
          "internalType": "uint256",
          "name": "issuedDate",
          "type": "uint256"
        },
        {
          "internalType": "bool",
          "name": "isRevoked",
          "type": "bool"
        },
        {
          "internalType": "string",
          "name": "metadataURI",
          "type": "string"
        }
      ],
      "stateMutability": "view",
      "type": "function"
    },
    {
      "inputs": [
        {
          "internalType": "uint256",
          "name": "tokenId",
          "type": "uint256"
        }
      ],
      "name": "getApproved",
      "outputs": [
        {
          "internalType": "address",
          "name": "",
          "type": "address"
        }
      ],
      "stateMutability": "view",
      "type": "function"
    },
    {
      "inputs": [
        {
          "internalType": "address",
          "name": "owner",
          "type": "address"
        }
      ],
      "name": "getCredentialsByOwner",
      "outputs": [
        {
          "internalType": "uint256[]",
          "name": "",
          "type": "uint256[]"
        }
      ],
      "stateMutability": "view",
      "type": "function"
    },
    {
      "inputs": [
        {
          "internalType": "address",
          "name": "owner",
          "type": "address"
        },
        {
          "internalType": "address",
          "name": "operator",
          "type": "address"
        }
      ],
      "name": "isApprovedForAll",
      "outputs": [
        {
          "internalType": "bool",
          "name": "",
          "type": "bool"
        }
      ],
      "stateMutability": "view",
      "type": "function"
    },
    {
      "inputs": [
        {
          "internalType": "uint256",
          "name": "tokenId",
          "type": "uint256"
        }
      ],
      "name": "isCredentialValid",
      "outputs": [
        {
          "internalType": "bool",
          "name": "",
          "type": "bool"
        }
      ],
      "stateMutability": "view",
      "type": "function"
    },
    {
      "inputs": [
        {
          "internalType": "address",
          "name": "to",
          "type": "address"
        },
        {
          "internalType": "string",
          "name": "credentialType",
          "type": "string"
        },
        {
          "internalType": "string",
          "name": "issuerName",
          "type": "string"
        },
        {
          "internalType": "uint256",
          "name": "trustScore",
          "type": "uint256"
        },
        {
          "internalType": "string",
          "name": "metadataURI",
          "type": "string"
        }
      ],
      "name": "mintCredential",
      "outputs": [
        {
          "internalType": "uint256",
          "name": "",
          "type": "uint256"
        }
      ],
      "stateMutability": "nonpayable",
      "type": "function"
    },
    {
      "inputs": [],
      "name": "name",
      "outputs": [
        {
          "internalType": "string",
          "name": "",
          "type": "string"
        }
      ],
      "stateMutability": "view",
      "type": "function"
    },
    {
      "inputs": [],
      "name": "owner",
      "outputs": [
        {
          "internalType": "address",
          "name": "",
          "type": "address"
        }
      ],
      "stateMutability": "view",
      "type": "function"
    },
    {
      "inputs": [
        {
          "internalType": "uint256",
          "name": "tokenId",
          "type": "uint256"
        }
      ],
      "name": "ownerOf",
      "outputs": [
        {
          "internalType": "address",
          "name": "",
          "type": "address"
        }
      ],
      "stateMutability": "view",
      "type": "function"
    },
    {
      "inputs": [],
      "name": "renounceOwnership",
      "outputs": [],
      "stateMutability": "nonpayable",
      "type": "function"
    },
    {
      "inputs": [
        {
          "internalType": "uint256",
          "name": "tokenId",
          "type": "uint256"
        }
      ],
      "name": "revokeCredential",
      "outputs": [],
      "stateMutability": "nonpayable",
      "type": "function"
    },
    {
      "inputs": [
        {
          "internalType": "address",
          "name": "from",
          "type": "address"
        },
        {
          "internalType": "address",
          "name": "to",
          "type": "address"
        },
        {
          "internalType": "uint256",
          "name": "tokenId",
          "type": "uint256"
        }
      ],
      "name": "safeTransferFrom",
      "outputs": [],
      "stateMutability": "nonpayable",
      "type": "function"
    },
    {
      "inputs": [
        {
          "internalType": "address",
          "name": "from",
          "type": "address"
        },
        {
          "internalType": "address",
          "name": "to",
          "type": "address"
        },
        {
          "internalType": "uint256",
          "name": "tokenId",
          "type": "uint256"
        },
        {
          "internalType": "bytes",
          "name": "data",
          "type": "bytes"
        }
      ],
      "name": "safeTransferFrom",
      "outputs": [],
      "stateMutability": "nonpayable",
      "type": "function"
    },
    {
      "inputs": [
        {
          "internalType": "address",
          "name": "operator",
          "type": "address"
        },
        {
          "internalType": "bool",
          "name": "approved",
          "type": "bool"
        }
      ],
      "name": "setApprovalForAll",
      "outputs": [],
      "stateMutability": "nonpayable",
      "type": "function"
    },
    {
      "inputs": [
        {
          "internalType": "bytes4",
          "name": "interfaceId",
          "type": "bytes4"
        }
      ],
      "name": "supportsInterface",
      "outputs": [
        {
          "internalType": "bool",
          "name": "",
          "type": "bool"
        }
      ],
      "stateMutability": "view",
      "type": "function"
    },
    {
      "inputs": [],
      "name": "symbol",
      "outputs": [
        {
          "internalType": "string",
          "name": "",
          "type": "string"
        }
      ],
      "stateMutability": "view",
      "type": "function"
    },
    {
      "inputs": [
        {
          "internalType": "uint256",
          "name": "index",
          "type": "uint256"
        }
      ],
      "name": "tokenByIndex",
      "outputs": [
        {
          "internalType": "uint256",
          "name": "",
          "type": "uint256"
        }
      ],
      "stateMutability": "view",
      "type": "function"
    },
    {
      "inputs": [
        {
          "internalType": "address",
          "name": "owner",
          "type": "address"
        },
        {
          "internalType": "uint256",
          "name": "index",
          "type": "uint256"
        }
      ],
      "name": "tokenOfOwnerByIndex",
      "outputs": [
        {
          "internalType": "uint256",
          "name": "",
          "type": "uint256"
        }
      ],
      "stateMutability": "view",
      "type": "function"
    },
    {
      "inputs": [
        {
          "internalType": "uint256",
          "name": "tokenId",
          "type": "uint256"
        }
      ],
      "name": "tokenURI",
      "outputs": [
        {
          "internalType": "string",
          "name": "",
          "type": "string"
        }
      ],
      "stateMutability": "view",
      "type": "function"
    },
    {
      "inputs": [],
      "name": "totalSupply",
      "outputs": [
        {
          "internalType": "uint256",
          "name": "",
          "type": "uint256"
        }
      ],
      "stateMutability": "view",
      "type": "function"
    },
    {
      "inputs": [
        {
          "internalType": "address",
          "name": "from",
          "type": "address"
        },
        {
          "internalType": "address",
          "name": "to",
          "type": "address"
        },
        {
          "internalType": "uint256",
          "name": "tokenId",
          "type": "uint256"
        }
      ],
      "name": "transferFrom",
      "outputs": [],
      "stateMutability": "nonpayable",
      "type": "function"
    },
    {
      "inputs": [
        {
          "internalType": "address",
          "name": "newOwner",
          "type": "address"
        }
      ],
      "name": "transferOwnership",
      "outputs": [],
      "stateMutability": "nonpayable",
      "type": "function"
    }
  ],
  "bytecode": "0x60806040523480156200001157600080fd5b506040518060400160405280601d81526020017f50726f6f6641492056657269666961626c652043726564656e7469616c0000008152506040518060400160405280600581526020017f50524f4f4600000000000000000000000000000000000000000000000000000081525081600090816200008f919062000412565b508060019081620000a1919062000412565b505050620000c4620000b8620000ca60201b60201c565b620000d260201b60201c565b620004f9565b600033905090565b6000600a60009054906101000a900473ffffffffffffffffffffffffffffffffffffffff16905081600a60006101000a81548173ffffffffffffffffffffffffffffffffffffffff021916908373ffffffffffffffffffffffffffffffffffffffff1602179055508173ffffffffffffffffffffffffffffffffffffffff168173ffffffffffffffffffffffffffffffffffffffff167f8be0079c531659141344cd1fd0a4f28419497f9722a3daafe3b4186f6b6457e060405160405180910390a35050565b600081519050919050565b7f4e487b7100000000000000000000000000000000000000000000000000000000600052604160045260246000fd5b7f4e487b7100000000000000000000000000000000000000000000000000000000600052602260045260246000fd5b600060028204905060018216806200021a57607f821691505b60208210810362000230576200022f620001d2565b5b50919050565b60008190508160005260206000209050919050565b60006020601f8301049050919050565b600082821b905092915050565b6000600883026200029a7fffffffffffffffffffffffffffffffffffffffffffffffffffffffffffffffff826200025b565b620002a686836200025b565b95508019841693508086168417925050509392505050565b6000819050919050565b6000819050919050565b6000620002f3620002ed620002e784620002be565b620002c8565b620002be565b9050919050565b6000819050919050565b6200030f83620002d2565b620003276200031e82620002fa565b84845462000268565b825550505050565b600090565b6200033e6200032f565b6200034b81848462000304565b505050565b5b8181101562000373576200036760008262000334565b60018101905062000351565b5050565b601f821115620003c2576200038c8162000236565b62000397846200024b565b81016020851015620003a7578190505b620003bf620003b6856200024b565b83018262000350565b50505b505050565b600082821c905092915050565b6000620003e760001984600802620003c7565b1980831691505092915050565b6000620004028383620003d4565b9150826002028217905092915050565b6200041d8262000198565b67ffffffffffffffff811115620004395762000438620001a3565b5b62000445825462000201565b6200045282828562000377565b600060209050601f8311600181146200048a576000841562000475578287015190505b620004818582620003f4565b865550620004f1565b601f1984166200049a8662000236565b60005b82811015620004c4578489015182556001820191506020850194506020810190506200049d565b86831015620004e45784890151620004e0601f891682620003d4565b8355505b6001600288020188555050505b505050505050565b613dcb80620005096000396000f3fe608060405234801561001057600080fd5b50600436106101585760003560e01c80636da48b9a116100c3578063b88d4fde1161007c578063b88d4fde146103eb578063c87b56dd14610407578063c96015db14610437578063e0574e3f14610467578063e985e9c51461049c578063f2fde38b146104cc57610158565b80636da48b9a1461032957806370a0823114610359578063715018a6146103895780638da5cb5b1461039357806395d89b41146103b1578063a22cb465146103cf57610158565b806323b872dd1161011557806323b872dd146102315780632f745c591461024d57806342842e0e1461027d578063441aca36146102995780634f6ccce7146102c95780636352211e146102f957610158565b806301ffc9a71461015d57806306fdde031461018d578063081812fc146101ab578063095ea7b3146101db57806318160ddd146101f75780631b87278d14610215575b600080fd5b61017760048036038101906101729190612704565b6104e8565b604051610184919061274c565b60405180910390f35b610195610562565b6040516101a291906127f7565b60405180910390f35b6101c560048036038101906101c0919061284f565b6105f4565b6040516101d291906128bd565b60405180910390f35b6101f560048036038101906101f09190612904565b61063a565b005b6101ff610751565b60405161020c9190612953565b60405180910390f35b61022f600480360381019061022a919061284f565b61075e565b005b61024b6004803603810190610246919061296e565b61080d565b005b61026760048036038101906102629190612904565b61086d565b6040516102749190612953565b60405180910390f35b6102976004803603810190610292919061296e565b610912565b005b6102b360048036038101906102ae9190612af6565b610932565b6040516102c09190612953565b60405180910390f35b6102e360048036038101906102de919061284f565b610a78565b6040516102f09190612953565b60405180910390f35b610313600480360381019061030e919061284f565b610ae9565b60405161032091906128bd565b60405180910390f35b610343600480360381019061033e919061284f565b610b6f565b604051610350919061274c565b60405180910390f35b610373600480360381019061036e9190612bc5565b610bb4565b6040516103809190612953565b60405180910390f35b610391610c6b565b005b61039b610c7f565b6040516103a891906128bd565b60405180910390f35b6103b9610ca9565b6040516103c691906127f7565b60405180910390f35b6103e960048036038101906103e49190612c1e565b610d3b565b005b61040560048036038101906104009190612cff565b610d51565b005b610421600480360381019061041c919061284f565b610db3565b60405161042e91906127f7565b60405180910390f35b610451600480360381019061044c9190612bc5565b610e1b565b60405161045e9190612e40565b60405180910390f35b610481600480360381019061047c919061284f565b610f24565b60405161049396959493929190612e62565b60405180910390f35b6104b660048036038101906104b19190612ed8565b611105565b6040516104c3919061274c565b60405180910390f35b6104e660048036038101906104e19190612bc5565b611199565b005b60007f780e9d63000000000000000000000000000000000000000000000000000000007bffffffffffffffffffffffffffffffffffffffffffffffffffffffff1916827bffffffffffffffffffffffffffffffffffffffffffffffffffffffff1916148061055b575061055a8261121c565b5b9050919050565b60606000805461057190612f47565b80601f016020809104026020016040519081016040528092919081815260200182805461059d90612f47565b80156105ea5780601f106105bf576101008083540402835291602001916105ea565b820191906000526020600020905b8154815290600101906020018083116105cd57829003601f168201915b5050505050905090565b60006105ff826112fe565b6004600083815260200190815260200160002060009054906101000a900473ffffffffffffffffffffffffffffffffffffffff169050919050565b600061064582610ae9565b90508073ffffffffffffffffffffffffffffffffffffffff168373ffffffffffffffffffffffffffffffffffffffff16036106b5576040517f08c379a00000000000000000000000000000000000000000000000000000000081526004016106ac90612fea565b60405180910390fd5b8073ffffffffffffffffffffffffffffffffffffffff166106d4611349565b73ffffffffffffffffffffffffffffffffffffffff1614806107035750610702816106fd611349565b611105565b5b610742576040517f08c379a00000000000000000000000000000000000000000000000000000000081526004016107399061307c565b60405180910390fd5b61074c8383611351565b505050565b6000600880549050905090565b61076661140a565b61076f81611488565b6107ae576040517f08c379a00000000000000000000000000000000000000000000000000000000081526004016107a59061310e565b60405180910390fd5b6001600c600083815260200190815260200160002060040160006101000a81548160ff021916908315150217905550807f0d47d5695004d2a4180ebb40037756439184993a0d1c6d4a8ff3a6aa9325607460405160405180910390a250565b61081e610818611349565b826114c9565b61085d576040517f08c379a0000000000000000000000000000000000000000000000000000000008152600401610854906131a0565b60405180910390fd5b61086883838361155e565b505050565b600061087883610bb4565b82106108b9576040517f08c379a00000000000000000000000000000000000000000000000000000000081526004016108b090613232565b60405180910390fd5b600660008473ffffffffffffffffffffffffffffffffffffffff1673ffffffffffffffffffffffffffffffffffffffff168152602001908152602001600020600083815260200190815260200160002054905092915050565b61092d83838360405180602001604052806000815250610d51565b505050565b600061093c61140a565b610946600b611857565b6000610952600b61186d565b905061095e878261187b565b6040518060c0016040528087815260200186815260200185815260200142815260200160001515815260200184815250600c600083815260200190815260200160002060008201518160000190816109b691906133fe565b5060208201518160010190816109cc91906133fe565b50604082015181600201556060820151816003015560808201518160040160006101000a81548160ff02191690831515021790555060a0820151816005019081610a1691906133fe565b50905050808773ffffffffffffffffffffffffffffffffffffffff167f7b0f527ad5c65bd61f1c83e3333ed0c259a3d994e78ab98e10c3f296a79c51ef8887604051610a639291906134d0565b60405180910390a38091505095945050505050565b6000610a82610751565b8210610ac3576040517f08c379a0000000000000000000000000000000000000000000000000000000008152600401610aba90613572565b60405180910390fd5b60088281548110610ad757610ad6613592565b5b90600052602060002001549050919050565b600080610af583611899565b9050600073ffffffffffffffffffffffffffffffffffffffff168173ffffffffffffffffffffffffffffffffffffffff1603610b66576040517f08c379a0000000000000000000000000000000000000000000000000000000008152600401610b5d9061360d565b60405180910390fd5b80915050919050565b6000610b7a82611488565b610b875760009050610baf565b600c600083815260200190815260200160002060040160009054906101000a900460ff161590505b919050565b60008073ffffffffffffffffffffffffffffffffffffffff168273ffffffffffffffffffffffffffffffffffffffff1603610c24576040517f08c379a0000000000000000000000000000000000000000000000000000000008152600401610c1b9061369f565b60405180910390fd5b600360008373ffffffffffffffffffffffffffffffffffffffff1673ffffffffffffffffffffffffffffffffffffffff168152602001908152602001600020549050919050565b610c7361140a565b610c7d60006118d6565b565b6000600a60009054906101000a900473ffffffffffffffffffffffffffffffffffffffff16905090565b606060018054610cb890612f47565b80601f0160208091040260200160405190810160405280929190818152602001828054610ce490612f47565b8015610d315780601f10610d0657610100808354040283529160200191610d31565b820191906000526020600020905b815481529060010190602001808311610d1457829003601f168201915b5050505050905090565b610d4d610d46611349565b838361199c565b5050565b610d62610d5c611349565b836114c9565b610da1576040517f08c379a0000000000000000000000000000000000000000000000000000000008152600401610d98906131a0565b60405180910390fd5b610dad84848484611b08565b50505050565b6060610dbe826112fe565b6000610dc8611b64565b90506000815111610de85760405180602001604052806000815250610e13565b80610df284611b7b565b604051602001610e039291906136fb565b6040516020818303038152906040525b915050919050565b60606000610e2883610bb4565b905060008103610e8457600067ffffffffffffffff811115610e4d57610e4c6129cb565b5b604051908082528060200260200182016040528015610e7b5781602001602082028036833780820191505090505b50915050610f1f565b60008167ffffffffffffffff811115610ea057610e9f6129cb565b5b604051908082528060200260200182016040528015610ece5781602001602082028036833780820191505090505b50905060005b82811015610f1857610ee6858261086d565b828281518110610ef957610ef8613592565b5b6020026020010181815250508080610f109061374e565b915050610ed4565b5080925050505b919050565b600c602052806000526040600020600091509050806000018054610f4790612f47565b80601f0160208091040260200160405190810160405280929190818152602001828054610f7390612f47565b8015610fc05780601f10610f9557610100808354040283529160200191610fc0565b820191906000526020600020905b815481529060010190602001808311610fa357829003601f168201915b505050505090806001018054610fd590612f47565b80601f016020809104026020016040519081016040528092919081815260200182805461100190612f47565b801561104e5780601f106110235761010080835404028352916020019161104e565b820191906000526020600020905b81548152906001019060200180831161103157829003601f168201915b5050505050908060020154908060030154908060040160009054906101000a900460ff169080600501805461108290612f47565b80601f01602080910402602001604051908101604052809291908181526020018280546110ae90612f47565b80156110fb5780601f106110d0576101008083540402835291602001916110fb565b820191906000526020600020905b8154815290600101906020018083116110de57829003601f168201915b5050505050905086565b6000600560008473ffffffffffffffffffffffffffffffffffffffff1673ffffffffffffffffffffffffffffffffffffffff16815260200190815260200160002060008373ffffffffffffffffffffffffffffffffffffffff1673ffffffffffffffffffffffffffffffffffffffff16815260200190815260200160002060009054906101000a900460ff16905092915050565b6111a161140a565b600073ffffffffffffffffffffffffffffffffffffffff168173ffffffffffffffffffffffffffffffffffffffff1603611210576040517f08c379a000000000000000000000000000000000000000000000000000000000815260040161120790613808565b60405180910390fd5b611219816118d6565b50565b60007f80ac58cd000000000000000000000000000000000000000000000000000000007bffffffffffffffffffffffffffffffffffffffffffffffffffffffff1916827bffffffffffffffffffffffffffffffffffffffffffffffffffffffff191614806112e757507f5b5e139f000000000000000000000000000000000000000000000000000000007bffffffffffffffffffffffffffffffffffffffffffffffffffffffff1916827bffffffffffffffffffffffffffffffffffffffffffffffffffffffff1916145b806112f757506112f682611c49565b5b9050919050565b61130781611488565b611346576040517f08c379a000000000000000000000000000000000000000000000000000000000815260040161133d9061360d565b60405180910390fd5b50565b600033905090565b816004600083815260200190815260200160002060006101000a81548173ffffffffffffffffffffffffffffffffffffffff021916908373ffffffffffffffffffffffffffffffffffffffff160217905550808273ffffffffffffffffffffffffffffffffffffffff166113c483610ae9565b73ffffffffffffffffffffffffffffffffffffffff167f8c5be1e5ebec7d5bd14f71427d1e84f3dd0314c0f7b2291e5b200ac8c7c3b92560405160405180910390a45050565b611412611349565b73ffffffffffffffffffffffffffffffffffffffff16611430610c7f565b73ffffffffffffffffffffffffffffffffffffffff1614611486576040517f08c379a000000000000000000000000000000000000000000000000000000000815260040161147d90613874565b60405180910390fd5b565b60008073ffffffffffffffffffffffffffffffffffffffff166114aa83611899565b73ffffffffffffffffffffffffffffffffffffffff1614159050919050565b6000806114d583610ae9565b90508073ffffffffffffffffffffffffffffffffffffffff168473ffffffffffffffffffffffffffffffffffffffff16148061151757506115168185611105565b5b8061155557508373ffffffffffffffffffffffffffffffffffffffff1661153d846105f4565b73ffffffffffffffffffffffffffffffffffffffff16145b91505092915050565b8273ffffffffffffffffffffffffffffffffffffffff1661157e82610ae9565b73ffffffffffffffffffffffffffffffffffffffff16146115d4576040517f08c379a00000000000000000000000000000000000000000000000000000000081526004016115cb90613906565b60405180910390fd5b600073ffffffffffffffffffffffffffffffffffffffff168273ffffffffffffffffffffffffffffffffffffffff1603611643576040517f08c379a000000000000000000000000000000000000000000000000000000000815260040161163a90613998565b60405180910390fd5b6116508383836001611cb3565b8273ffffffffffffffffffffffffffffffffffffffff1661167082610ae9565b73ffffffffffffffffffffffffffffffffffffffff16146116c6576040517f08c379a00000000000000000000000000000000000000000000000000000000081526004016116bd90613906565b60405180910390fd5b6004600082815260200190815260200160002060006101000a81549073ffffffffffffffffffffffffffffffffffffffff02191690556001600360008573ffffffffffffffffffffffffffffffffffffffff1673ffffffffffffffffffffffffffffffffffffffff168152602001908152602001600020600082825403925050819055506001600360008473ffffffffffffffffffffffffffffffffffffffff1673ffffffffffffffffffffffffffffffffffffffff16815260200190815260200160002060008282540192505081905550816002600083815260200190815260200160002060006101000a81548173ffffffffffffffffffffffffffffffffffffffff021916908373ffffffffffffffffffffffffffffffffffffffff160217905550808273ffffffffffffffffffffffffffffffffffffffff168473ffffffffffffffffffffffffffffffffffffffff167fddf252ad1be2c89b69c2b068fc378daa952ba7f163c4a11628f55a4df523b3ef60405160405180910390a46118528383836001611e11565b505050565b6001816000016000828254019250508190555050565b600081600001549050919050565b611895828260405180602001604052806000815250611e17565b5050565b60006002600083815260200190815260200160002060009054906101000a900473ffffffffffffffffffffffffffffffffffffffff169050919050565b6000600a60009054906101000a900473ffffffffffffffffffffffffffffffffffffffff16905081600a60006101000a81548173ffffffffffffffffffffffffffffffffffffffff021916908373ffffffffffffffffffffffffffffffffffffffff1602179055508173ffffffffffffffffffffffffffffffffffffffff168173ffffffffffffffffffffffffffffffffffffffff167f8be0079c531659141344cd1fd0a4f28419497f9722a3daafe3b4186f6b6457e060405160405180910390a35050565b8173ffffffffffffffffffffffffffffffffffffffff168373ffffffffffffffffffffffffffffffffffffffff1603611a0a576040517f08c379a0000000000000000000000000000000000000000000000000000000008152600401611a0190613a04565b60405180910390fd5b80600560008573ffffffffffffffffffffffffffffffffffffffff1673ffffffffffffffffffffffffffffffffffffffff16815260200190815260200160002060008473ffffffffffffffffffffffffffffffffffffffff1673ffffffffffffffffffffffffffffffffffffffff16815260200190815260200160002060006101000a81548160ff0219169083151502179055508173ffffffffffffffffffffffffffffffffffffffff168373ffffffffffffffffffffffffffffffffffffffff167f17307eab39ab6107e8899845ad3d59bd9653f200f220920489ca2b5937696c3183604051611afb919061274c565b60405180910390a3505050565b611b1384848461155e565b611b1f84848484611e72565b611b5e576040517f08c379a0000000000000000000000000000000000000000000000000000000008152600401611b5590613a96565b60405180910390fd5b50505050565b606060405180602001604052806000815250905090565b606060006001611b8a84611ff9565b01905060008167ffffffffffffffff811115611ba957611ba86129cb565b5b6040519080825280601f01601f191660200182016040528015611bdb5781602001600182028036833780820191505090505b509050600082602001820190505b600115611c3e578080600190039150507f3031323334353637383961626364656600000000000000000000000000000000600a86061a8153600a8581611c3257611c31613ab6565b5b04945060008503611be9575b819350505050919050565b60007f01ffc9a7000000000000000000000000000000000000000000000000000000007bffffffffffffffffffffffffffffffffffffffffffffffffffffffff1916827bffffffffffffffffffffffffffffffffffffffffffffffffffffffff1916149050919050565b611cbf8484848461214c565b6001811115611d03576040517f08c379a0000000000000000000000000000000000000000000000000000000008152600401611cfa90613b57565b60405180910390fd5b6000829050600073ffffffffffffffffffffffffffffffffffffffff168573ffffffffffffffffffffffffffffffffffffffff1603611d4a57611d4581612152565b611d89565b8373ffffffffffffffffffffffffffffffffffffffff168573ffffffffffffffffffffffffffffffffffffffff1614611d8857611d87858261219b565b5b5b600073ffffffffffffffffffffffffffffffffffffffff168473ffffffffffffffffffffffffffffffffffffffff1603611dcb57611dc681612308565b611e0a565b8473ffffffffffffffffffffffffffffffffffffffff168473ffffffffffffffffffffffffffffffffffffffff1614611e0957611e0884826123d9565b5b5b5050505050565b50505050565b611e218383612458565b611e2e6000848484611e72565b611e6d576040517f08c379a0000000000000000000000000000000000000000000000000000000008152600401611e6490613a96565b60405180910390fd5b505050565b6000611e938473ffffffffffffffffffffffffffffffffffffffff16612675565b15611fec578373ffffffffffffffffffffffffffffffffffffffff1663150b7a02611ebc611349565b8786866040518563ffffffff1660e01b8152600401611ede9493929190613bcc565b6020604051808303816000875af1925050508015611f1a57506040513d601f19601f82011682018060405250810190611f179190613c2d565b60015b611f9c573d8060008114611f4a576040519150601f19603f3d011682016040523d82523d6000602084013e611f4f565b606091505b506000815103611f94576040517f08c379a0000000000000000000000000000000000000000000000000000000008152600401611f8b90613a96565b60405180910390fd5b805181602001fd5b63150b7a0260e01b7bffffffffffffffffffffffffffffffffffffffffffffffffffffffff1916817bffffffffffffffffffffffffffffffffffffffffffffffffffffffff191614915050611ff1565b600190505b949350505050565b600080600090507a184f03e93ff9f4daa797ed6e38ed64bf6a1f0100000000000000008310612057577a184f03e93ff9f4daa797ed6e38ed64bf6a1f010000000000000000838161204d5761204c613ab6565b5b0492506040810190505b6d04ee2d6d415b85acef81000000008310612094576d04ee2d6d415b85acef8100000000838161208a57612089613ab6565b5b0492506020810190505b662386f26fc1000083106120c357662386f26fc1000083816120b9576120b8613ab6565b5b0492506010810190505b6305f5e10083106120ec576305f5e10083816120e2576120e1613ab6565b5b0492506008810190505b612710831061211157612710838161210757612106613ab6565b5b0492506004810190505b60648310612134576064838161212a57612129613ab6565b5b0492506002810190505b600a8310612143576001810190505b80915050919050565b50505050565b6008805490506009600083815260200190815260200160002081905550600881908060018154018082558091505060019003906000526020600020016000909190919091505550565b600060016121a884610bb4565b6121b29190613c5a565b9050600060076000848152602001908152602001600020549050818114612297576000600660008673ffffffffffffffffffffffffffffffffffffffff1673ffffffffffffffffffffffffffffffffffffffff168152602001908152602001600020600084815260200190815260200160002054905080600660008773ffffffffffffffffffffffffffffffffffffffff1673ffffffffffffffffffffffffffffffffffffffff168152602001908152602001600020600084815260200190815260200160002081905550816007600083815260200190815260200160002081905550505b6007600084815260200190815260200160002060009055600660008573ffffffffffffffffffffffffffffffffffffffff1673ffffffffffffffffffffffffffffffffffffffff16815260200190815260200160002060008381526020019081526020016000206000905550505050565b6000600160088054905061231c9190613c5a565b905060006009600084815260200190815260200160002054905060006008838154811061234c5761234b613592565b5b90600052602060002001549050806008838154811061236e5761236d613592565b5b9060005260206000200181905550816009600083815260200190815260200160002081905550600960008581526020019081526020016000206000905560088054806123bd576123bc613c8e565b5b6001900381819060005260206000200160009055905550505050565b60006123e483610bb4565b905081600660008573ffffffffffffffffffffffffffffffffffffffff1673ffffffffffffffffffffffffffffffffffffffff168152602001908152602001600020600083815260200190815260200160002081905550806007600084815260200190815260200160002081905550505050565b600073ffffffffffffffffffffffffffffffffffffffff168273ffffffffffffffffffffffffffffffffffffffff16036124c7576040517f08c379a00000000000000000000000000000000000000000000000000000000081526004016124be90613d09565b60405180910390fd5b6124d081611488565b15612510576040517f08c379a000000000000000000000000000000000000000000000000000000000815260040161250790613d75565b60405180910390fd5b61251e600083836001611cb3565b61252781611488565b15612567576040517f08c379a000000000000000000000000000000000000000000000000000000000815260040161255e90613d75565b60405180910390fd5b6001600360008473ffffffffffffffffffffffffffffffffffffffff1673ffffffffffffffffffffffffffffffffffffffff16815260200190815260200160002060008282540192505081905550816002600083815260200190815260200160002060006101000a81548173ffffffffffffffffffffffffffffffffffffffff021916908373ffffffffffffffffffffffffffffffffffffffff160217905550808273ffffffffffffffffffffffffffffffffffffffff16600073ffffffffffffffffffffffffffffffffffffffff167fddf252ad1be2c89b69c2b068fc378daa952ba7f163c4a11628f55a4df523b3ef60405160405180910390a4612671600083836001611e11565b5050565b6000808273ffffffffffffffffffffffffffffffffffffffff163b119050919050565b6000604051905090565b600080fd5b600080fd5b60007fffffffff0000000000000000000000000000000000000000000000000000000082169050919050565b6126e1816126ac565b81146126ec57600080fd5b50565b6000813590506126fe816126d8565b92915050565b60006020828403121561271a576127196126a2565b5b6000612728848285016126ef565b91505092915050565b60008115159050919050565b61274681612731565b82525050565b6000602082019050612761600083018461273d565b92915050565b600081519050919050565b600082825260208201905092915050565b60005b838110156127a1578082015181840152602081019050612786565b60008484015250505050565b6000601f19601f8301169050919050565b60006127c982612767565b6127d38185612772565b93506127e3818560208601612783565b6127ec816127ad565b840191505092915050565b6000602082019050818103600083015261281181846127be565b905092915050565b6000819050919050565b61282c81612819565b811461283757600080fd5b50565b60008135905061284981612823565b92915050565b600060208284031215612865576128646126a2565b5b60006128738482850161283a565b91505092915050565b600073ffffffffffffffffffffffffffffffffffffffff82169050919050565b60006128a78261287c565b9050919050565b6128b78161289c565b82525050565b60006020820190506128d260008301846128ae565b92915050565b6128e18161289c565b81146128ec57600080fd5b50565b6000813590506128fe816128d8565b92915050565b6000806040838503121561291b5761291a6126a2565b5b6000612929858286016128ef565b925050602061293a8582860161283a565b9150509250929050565b61294d81612819565b82525050565b60006020820190506129686000830184612944565b92915050565b600080600060608486031215612987576129866126a2565b5b6000612995868287016128ef565b93505060206129a6868287016128ef565b92505060406129b78682870161283a565b9150509250925092565b600080fd5b600080fd5b7f4e487b7100000000000000000000000000000000000000000000000000000000600052604160045260246000fd5b612a03826127ad565b810181811067ffffffffffffffff82111715612a2257612a216129cb565b5b80604052505050565b6000612a35612698565b9050612a4182826129fa565b919050565b600067ffffffffffffffff821115612a6157612a606129cb565b5b612a6a826127ad565b9050602081019050919050565b82818337600083830152505050565b6000612a99612a9484612a46565b612a2b565b905082815260208101848484011115612ab557612ab46129c6565b5b612ac0848285612a77565b509392505050565b600082601f830112612add57612adc6129c1565b5b8135612aed848260208601612a86565b91505092915050565b600080600080600060a08688031215612b1257612b116126a2565b5b6000612b20888289016128ef565b955050602086013567ffffffffffffffff811115612b4157612b406126a7565b5b612b4d88828901612ac8565b945050604086013567ffffffffffffffff811115612b6e57612b6d6126a7565b5b612b7a88828901612ac8565b9350506060612b8b8882890161283a565b925050608086013567ffffffffffffffff811115612bac57612bab6126a7565b5b612bb888828901612ac8565b9150509295509295909350565b600060208284031215612bdb57612bda6126a2565b5b6000612be9848285016128ef565b91505092915050565b612bfb81612731565b8114612c0657600080fd5b50565b600081359050612c1881612bf2565b92915050565b60008060408385031215612c3557612c346126a2565b5b6000612c43858286016128ef565b9250506020612c5485828601612c09565b9150509250929050565b600067ffffffffffffffff821115612c7957612c786129cb565b5b612c82826127ad565b9050602081019050919050565b6000612ca2612c9d84612c5e565b612a2b565b905082815260208101848484011115612cbe57612cbd6129c6565b5b612cc9848285612a77565b509392505050565b600082601f830112612ce657612ce56129c1565b5b8135612cf6848260208601612c8f565b91505092915050565b60008060008060808587031215612d1957612d186126a2565b5b6000612d27878288016128ef565b9450506020612d38878288016128ef565b9350506040612d498782880161283a565b925050606085013567ffffffffffffffff811115612d6a57612d696126a7565b5b612d7687828801612cd1565b91505092959194509250565b600081519050919050565b600082825260208201905092915050565b6000819050602082019050919050565b612db781612819565b82525050565b6000612dc98383612dae565b60208301905092915050565b6000602082019050919050565b6000612ded82612d82565b612df78185612d8d565b9350612e0283612d9e565b8060005b83811015612e33578151612e1a8882612dbd565b9750612e2583612dd5565b925050600181019050612e06565b5085935050505092915050565b60006020820190508181036000830152612e5a8184612de2565b905092915050565b600060c0820190508181036000830152612e7c81896127be565b90508181036020830152612e9081886127be565b9050612e9f6040830187612944565b612eac6060830186612944565b612eb9608083018561273d565b81810360a0830152612ecb81846127be565b9050979650505050505050565b60008060408385031215612eef57612eee6126a2565b5b6000612efd858286016128ef565b9250506020612f0e858286016128ef565b9150509250929050565b7f4e487b7100000000000000000000000000000000000000000000000000000000600052602260045260246000fd5b60006002820490506001821680612f5f57607f821691505b602082108103612f7257612f71612f18565b5b50919050565b7f4552433732313a20617070726f76616c20746f2063757272656e74206f776e6560008201527f7200000000000000000000000000000000000000000000000000000000000000602082015250565b6000612fd4602183612772565b9150612fdf82612f78565b604082019050919050565b6000602082019050818103600083015261300381612fc7565b9050919050565b7f4552433732313a20617070726f76652063616c6c6572206973206e6f7420746f60008201527f6b656e206f776e6572206f7220617070726f76656420666f7220616c6c000000602082015250565b6000613066603d83612772565b91506130718261300a565b604082019050919050565b6000602082019050818103600083015261309581613059565b9050919050565b7f50726f6f6641493a2043726564656e7469616c2077697468207468697320494460008201527f20646f6573206e6f742065786973742e00000000000000000000000000000000602082015250565b60006130f8603083612772565b91506131038261309c565b604082019050919050565b60006020820190508181036000830152613127816130eb565b9050919050565b7f4552433732313a2063616c6c6572206973206e6f7420746f6b656e206f776e6560008201527f72206f7220617070726f76656400000000000000000000000000000000000000602082015250565b600061318a602d83612772565b91506131958261312e565b604082019050919050565b600060208201905081810360008301526131b98161317d565b9050919050565b7f455243373231456e756d657261626c653a206f776e657220696e646578206f7560008201527f74206f6620626f756e6473000000000000000000000000000000000000000000602082015250565b600061321c602b83612772565b9150613227826131c0565b604082019050919050565b6000602082019050818103600083015261324b8161320f565b9050919050565b60008190508160005260206000209050919050565b60006020601f8301049050919050565b600082821b905092915050565b6000600883026132b47fffffffffffffffffffffffffffffffffffffffffffffffffffffffffffffffff82613277565b6132be8683613277565b95508019841693508086168417925050509392505050565b6000819050919050565b60006132fb6132f66132f184612819565b6132d6565b612819565b9050919050565b6000819050919050565b613315836132e0565b61332961332182613302565b848454613284565b825550505050565b600090565b61333e613331565b61334981848461330c565b505050565b5b8181101561336d57613362600082613336565b60018101905061334f565b5050565b601f8211156133b25761338381613252565b61338c84613267565b8101602085101561339b578190505b6133af6133a785613267565b83018261334e565b50505b505050565b600082821c905092915050565b60006133d5600019846008026133b7565b1980831691505092915050565b60006133ee83836133c4565b9150826002028217905092915050565b61340782612767565b67ffffffffffffffff8111156134205761341f6129cb565b5b61342a8254612f47565b613435828285613371565b600060209050601f8311600181146134685760008415613456578287015190505b61346085826133e2565b8655506134c8565b601f19841661347686613252565b60005b8281101561349e57848901518255600182019150602085019450602081019050613479565b868310156134bb57848901516134b7601f8916826133c4565b8355505b6001600288020188555050505b505050505050565b600060408201905081810360008301526134ea81856127be565b90506134f96020830184612944565b9392505050565b7f455243373231456e756d657261626c653a20676c6f62616c20696e646578206f60008201527f7574206f6620626f756e64730000000000000000000000000000000000000000602082015250565b600061355c602c83612772565b915061356782613500565b604082019050919050565b6000602082019050818103600083015261358b8161354f565b9050919050565b7f4e487b7100000000000000000000000000000000000000000000000000000000600052603260045260246000fd5b7f4552433732313a20696e76616c696420746f6b656e2049440000000000000000600082015250565b60006135f7601883612772565b9150613602826135c1565b602082019050919050565b60006020820190508181036000830152613626816135ea565b9050919050565b7f4552433732313a2061646472657373207a65726f206973206e6f74206120766160008201527f6c6964206f776e65720000000000000000000000000000000000000000000000602082015250565b6000613689602983612772565b91506136948261362d565b604082019050919050565b600060208201905081810360008301526136b88161367c565b9050919050565b600081905092915050565b60006136d582612767565b6136df81856136bf565b93506136ef818560208601612783565b80840191505092915050565b600061370782856136ca565b915061371382846136ca565b91508190509392505050565b7f4e487b7100000000000000000000000000000000000000000000000000000000600052601160045260246000fd5b600061375982612819565b91507fffffffffffffffffffffffffffffffffffffffffffffffffffffffffffffffff820361378b5761378a61371f565b5b600182019050919050565b7f4f776e61626c653a206e6577206f776e657220697320746865207a65726f206160008201527f6464726573730000000000000000000000000000000000000000000000000000602082015250565b60006137f2602683612772565b91506137fd82613796565b604082019050919050565b60006020820190508181036000830152613821816137e5565b9050919050565b7f4f776e61626c653a2063616c6c6572206973206e6f7420746865206f776e6572600082015250565b600061385e602083612772565b915061386982613828565b602082019050919050565b6000602082019050818103600083015261388d81613851565b9050919050565b7f4552433732313a207472616e736665722066726f6d20696e636f72726563742060008201527f6f776e6572000000000000000000000000000000000000000000000000000000602082015250565b60006138f0602583612772565b91506138fb82613894565b604082019050919050565b6000602082019050818103600083015261391f816138e3565b9050919050565b7f4552433732313a207472616e7366657220746f20746865207a65726f2061646460008201527f7265737300000000000000000000000000000000000000000000000000000000602082015250565b6000613982602483612772565b915061398d82613926565b604082019050919050565b600060208201905081810360008301526139b181613975565b9050919050565b7f4552433732313a20617070726f766520746f2063616c6c657200000000000000600082015250565b60006139ee601983612772565b91506139f9826139b8565b602082019050919050565b60006020820190508181036000830152613a1d816139e1565b9050919050565b7f4552433732313a207472616e7366657220746f206e6f6e20455243373231526560008201527f63656976657220696d706c656d656e7465720000000000000000000000000000602082015250565b6000613a80603283612772565b9150613a8b82613a24565b604082019050919050565b60006020820190508181036000830152613aaf81613a73565b9050919050565b7f4e487b7100000000000000000000000000000000000000000000000000000000600052601260045260246000fd5b7f455243373231456e756d657261626c653a20636f6e736563757469766520747260008201527f616e7366657273206e6f7420737570706f727465640000000000000000000000602082015250565b6000613b41603583612772565b9150613b4c82613ae5565b604082019050919050565b60006020820190508181036000830152613b7081613b34565b9050919050565b600081519050919050565b600082825260208201905092915050565b6000613b9e82613b77565b613ba88185613b82565b9350613bb8818560208601612783565b613bc1816127ad565b840191505092915050565b6000608082019050613be160008301876128ae565b613bee60208301866128ae565b613bfb6040830185612944565b8181036060830152613c0d8184613b93565b905095945050505050565b600081519050613c27816126d8565b92915050565b600060208284031215613c4357613c426126a2565b5b6000613c5184828501613c18565b91505092915050565b6000613c6582612819565b9150613c7083612819565b9250828203905081811115613c8857613c8761371f565b5b92915050565b7f4e487b7100000000000000000000000000000000000000000000000000000000600052603160045260246000fd5b7f4552433732313a206d696e7420746f20746865207a65726f2061646472657373600082015250565b6000613cf3602083612772565b9150613cfe82613cbd565b602082019050919050565b60006020820190508181036000830152613d2281613ce6565b9050919050565b7f4552433732313a20746f6b656e20616c7265616479206d696e74656400000000600082015250565b6000613d5f601c83612772565b9150613d6a82613d29565b602082019050919050565b60006020820190508181036000830152613d8e81613d52565b905091905056fea26469706673582212203cffd6974af136103603fdef9905fa03863d9f2596e23efdd39fea650d2dc55964736f6c63430008140033",
  "linkReferences": {},
  "deployedLinkReferences": {}
}