{
  "_format": "hh-sol-artifact-1",
  "contractName": "ProofAI",
  "sourceName": "contracts/ProofAI.sol",
  "abi": [
    {
      "inputs": [],
      "stateMutability": "nonpayable",
      "type": "constructor"
    },
    {
      "inputs": [],
      "name": "ProofAI_CallerNotAuthorizedCompany",
      "type": "error"
    },
    {
      "inputs": [],
      "name": "ProofAI_CannotAuthorizeZeroAddress",
      "type": "error"
    },
    {
      "inputs": [],
      "name": "ProofAI_CompanyAlreadyVerified",
      "type": "error"
    },
    {
      "inputs": [],
      "name": "ProofAI_CredentialDoesNotExist",
      "type": "error"
    },
    {
      "inputs": [],
      "name": "ProofAI_EmploymentAlreadyEnded",
      "type": "error"
    },
    {
      "inputs": [],
      "name": "ProofAI_NotAuthorizedToEndEmployment",
      "type": "error"
    },
    {
      "inputs": [],
      "name": "ProofAI_TokenIsSoulbound",
      "type": "error"
    },
    {
      "inputs": [],
      "name": "ProofAI_URIQueryForNonexistentToken",
      "type": "error"
    },
    {
      "anonymous": false,
      "inputs": [
        {
          "indexed": true,
          "internalType": "address",
          "name": "owner",
          "type": "address"
        },
        {
          "indexed": true,
          "internalType": "address",
          "name": "approved",
          "type": "address"
        },
        {
          "indexed": true,
          "internalType": "uint256",
          "name": "tokenId",
          "type": "uint256"
        }
      ],
      "name": "Approval",
      "type": "event"
    },
    {
      "anonymous": false,
      "inputs": [
        {
          "indexed": true,
          "internalType": "address",
          "name": "owner",
          "type": "address"
        },
        {
          "indexed": true,
          "internalType": "address",
          "name": "operator",
          "type": "address"
        },
        {
          "indexed": false,
          "internalType": "bool",
          "name": "approved",
          "type": "bool"
        }
      ],
      "name": "ApprovalForAll",
      "type": "event"
    },
    {
      "anonymous": false,
      "inputs": [
        {
          "indexed": true,
          "internalType": "address",
          "name": "company",
          "type": "address"
        },
        {
          "indexed": false,
          "internalType": "string",
          "name": "companyName",
          "type": "string"
        }
      ],
      "name": "CompanyAuthorized",
      "type": "event"
    },
    {
      "anonymous": false,
      "inputs": [
        {
          "indexed": true,
          "internalType": "address",
          "name": "company",
          "type": "address"
        },
        {
          "indexed": false,
          "internalType": "string",
          "name": "reason",
          "type": "string"
        }
      ],
      "name": "CompanyFlagged",
      "type": "event"
    },
    {
      "anonymous": false,
      "inputs": [
        {
          "indexed": true,
          "internalType": "address",
          "name": "company",
          "type": "address"
        }
      ],
      "name": "CompanyVerified",
      "type": "event"
    },
    {
      "anonymous": false,
      "inputs": [
        {
          "indexed": true,
          "internalType": "address",
          "name": "user",
          "type": "address"
        },
        {
          "indexed": true,
          "internalType": "uint256",
          "name": "tokenId",
          "type": "uint256"
        },
        {
          "indexed": false,
          "internalType": "string",
          "name": "credentialType",
          "type": "string"
        },
        {
          "indexed": false,
          "internalType": "uint256",
          "name": "trustScore",
          "type": "uint256"
        }
      ],
      "name": "CredentialMinted",
      "type": "event"
    },
    {
      "anonymous": false,
      "inputs": [
        {
          "indexed": true,
          "internalType": "uint256",
          "name": "tokenId",
          "type": "uint256"
        }
      ],
      "name": "CredentialRevoked",
      "type": "event"
    },
    {
      "anonymous": false,
      "inputs": [
        {
          "indexed": true,
          "internalType": "uint256",
          "name": "tokenId",
          "type": "uint256"
        },
        {
          "indexed": false,
          "internalType": "uint256",
          "name": "endDate",
          "type": "uint256"
        },
        {
          "indexed": false,
          "internalType": "string",
          "name": "reason",
          "type": "string"
        }
      ],
      "name": "EmploymentEnded",
      "type": "event"
    },
    {
      "anonymous": false,
      "inputs": [
        {
          "indexed": true,
          "internalType": "address",
          "name": "employee",
          "type": "address"
        },
        {
          "indexed": true,
          "internalType": "address",
          "name": "employer",
          "type": "address"
        },
        {
          "indexed": false,
          "internalType": "uint256",
          "name": "tokenId",
          "type": "uint256"
        },
        {
          "indexed": false,
          "internalType": "string",
          "name": "position",
          "type": "string"
        }
      ],
      "name": "EmploymentMinted",
      "type": "event"
    },
    {
      "anonymous": false,
      "inputs": [
        {
          "indexed": true,
          "internalType": "address",
          "name": "previousOwner",
          "type": "address"
        },
        {
          "indexed": true,
          "internalType": "address",
          "name": "newOwner",
          "type": "address"
        }
      ],
      "name": "OwnershipTransferred",
      "type": "event"
    },
    {
      "anonymous": false,
      "inputs": [
        {
          "indexed": true,
          "internalType": "address",
          "name": "from",
          "type": "address"
        },
        {
          "indexed": true,
          "internalType": "address",
          "name": "to",
          "type": "address"
        },
        {
          "indexed": true,
          "internalType": "uint256",
          "name": "tokenId",
          "type": "uint256"
        }
      ],
      "name": "Transfer",
      "type": "event"
    },
    {
      "inputs": [
        {
          "internalType": "address",
          "name": "to",
          "type": "address"
        },
        {
          "internalType": "uint256",
          "name": "tokenId",
          "type": "uint256"
        }
      ],
      "name": "approve",
      "outputs": [],
      "stateMutability": "nonpayable",
      "type": "function"
    },
    {
      "inputs": [
        {
          "internalType": "address",
          "name": "companyAddress",
          "type": "address"
        },
        {
          "internalType": "string",
          "name": "companyName",
          "type": "string"
        }
      ],
      "name": "authorizeCompany",
      "outputs": [],
      "stateMutability": "nonpayable",
      "type": "function"
    },
    {
      "inputs": [
        {
          "internalType": "address",
          "name": "",
          "type": "address"
        }
      ],
      "name": "authorizedCompanies",
      "outputs": [
        {
          "internalType": "bool",
          "name": "",
          "type": "bool"
        }
      ],
      "stateMutability": "view",
      "type": "function"
    },
    {
      "inputs": [
        {
          "internalType": "address",
          "name": "owner",
          "type": "address"
        }
      ],
      "name": "balanceOf",
      "outputs": [
        {
          "internalType": "uint256",
          "name": "",
          "type": "uint256"
        }
      ],
      "stateMutability": "view",
      "type": "function"
    },
    {
      "inputs": [
        {
          "internalType": "address",
          "name": "employee",
          "type": "address"
        }
      ],
      "name": "checkEmploymentConflicts",
      "outputs": [
        {
          "internalType": "bool",
          "name": "hasConflicts",
          "type": "bool"
        },
        {
          "internalType": "uint256",
          "name": "activeFullTimeCount",
          "type": "uint256"
        }
      ],
      "stateMutability": "view",
      "type": "function"
    },
    {
      "inputs": [
        {
          "internalType": "address",
          "name": "",
          "type": "address"
        }
      ],
      "name": "companyProfiles",
      "outputs": [
        {
          "internalType": "string",
          "name": "companyName",
          "type": "string"
        },
        {
          "internalType": "bool",
          "name": "isVerified",
          "type": "bool"
        },
        {
          "internalType": "uint256",
          "name": "trustScore",
          "type": "uint256"
        },
        {
          "internalType": "uint256",
          "name": "registrationDate",
          "type": "uint256"
        }
      ],
      "stateMutability": "view",
      "type": "function"
    },
    {
      "inputs": [
        {
          "internalType": "uint256",
          "name": "",
          "type": "uint256"
        }
      ],
      "name": "credentials",
      "outputs": [
        {
          "internalType": "string",
          "name": "credentialType",
          "type": "string"
        },
        {
          "internalType": "string",
          "name": "issuerName",
          "type": "string"
        },
        {
          "internalType": "uint256",
          "name": "trustScore",
          "type": "uint256"
        },
        {
          "internalType": "uint256",
          "name": "issuedDate",
          "type": "uint256"
        },
        {
          "internalType": "bool",
          "name": "isRevoked",
          "type": "bool"
        }
      ],
      "stateMutability": "view",
      "type": "function"
    },
    {
      "inputs": [
        {
          "internalType": "address",
          "name": "",
          "type": "address"
        }
      ],
      "name": "employmentRecords",
      "outputs": [
        {
          "internalType": "uint256",
          "name": "activeCount",
          "type": "uint256"
        },
        {
          "internalType": "uint256",
          "name": "lastUpdated",
          "type": "uint256"
        }
      ],
      "stateMutability": "view",
      "type": "function"
    },
    {
      "inputs": [
        {
          "internalType": "uint256",
          "name": "",
          "type": "uint256"
        }
      ],
      "name": "employments",
      "outputs": [
        {
          "internalType": "address",
          "name": "employer",
          "type": "address"
        },
        {
          "internalType": "string",
          "name": "companyName",
          "type": "string"
        },
        {
          "internalType": "string",
          "name": "position",
          "type": "string"
        },
        {
          "internalType": "uint256",
          "name": "startDate",
          "type": "uint256"
        },
        {
          "internalType": "uint256",
          "name": "endDate",
          "type": "uint256"
        },
        {
          "internalType": "string",
          "name": "employmentType",
          "type": "string"
        },
        {
          "internalType": "bool",
          "name": "isActive",
          "type": "bool"
        },
        {
          "internalType": "string",
          "name": "endReason",
          "type": "string"
        },
        {
          "internalType": "uint256",
          "name": "trustScore",
          "type": "uint256"
        }
      ],
      "stateMutability": "view",
      "type": "function"
    },
    {
      "inputs": [
        {
          "internalType": "uint256",
          "name": "tokenId",
          "type": "uint256"
        },
        {
          "internalType": "string",
          "name": "reason",
          "type": "string"
        }
      ],
      "name": "endEmployment",
      "outputs": [],
      "stateMutability": "nonpayable",
      "type": "function"
    },
    {
      "inputs": [
        {
          "internalType": "address",
          "name": "companyAddress",
          "type": "address"
        },
        {
          "internalType": "string",
          "name": "reason",
          "type": "string"
        }
      ],
      "name": "flagFraudulentCompany",
      "outputs": [],
      "stateMutability": "nonpayable",
      "type": "function"
    },
    {
      "inputs": [
        {
          "internalType": "address",
          "name": "employee",
          "type": "address"
        }
      ],
      "name": "getActiveEmployments",
      "outputs": [
        {
          "components": [
            {
              "internalType": "address",
              "name": "employer",
              "type": "address"
            },
            {
              "internalType": "string",
              "name": "companyName",
              "type": "string"
            },
            {
              "internalType": "string",
              "name": "position",
              "type": "string"
            },
            {
              "internalType": "uint256",
              "name": "startDate",
              "type": "uint256"
            },
            {
              "internalType": "uint256",
              "name": "endDate",
              "type": "uint256"
            },
            {
              "internalType": "string",
              "name": "employmentType",
              "type": "string"
            },
            {
              "internalType": "bool",
              "name": "isActive",
              "type": "bool"
            },
            {
              "internalType": "string",
              "name": "endReason",
              "type": "string"
            },
            {
              "internalType": "uint256",
              "name": "trustScore",
              "type": "uint256"
            }
          ],
          "internalType": "struct ProofAI.Employment[]",
          "name": "",
          "type": "tuple[]"
        }
      ],
      "stateMutability": "view",
      "type": "function"
    },
    {
      "inputs": [
        {
          "internalType": "uint256",
          "name": "tokenId",
          "type": "uint256"
        }
      ],
      "name": "getApproved",
      "outputs": [
        {
          "internalType": "address",
          "name": "",
          "type": "address"
        }
      ],
      "stateMutability": "view",
      "type": "function"
    },
    {
      "inputs": [
        {
          "internalType": "address",
          "name": "owner",
          "type": "address"
        }
      ],
      "name": "getCredentialsByOwner",
      "outputs": [
        {
          "internalType": "uint256[]",
          "name": "",
          "type": "uint256[]"
        }
      ],
      "stateMutability": "view",
      "type": "function"
    },
    {
      "inputs": [
        {
          "internalType": "address",
          "name": "employee",
          "type": "address"
        }
      ],
      "name": "getEmploymentHistory",
      "outputs": [
        {
          "components": [
            {
              "internalType": "address",
              "name": "employer",
              "type": "address"
            },
            {
              "internalType": "string",
              "name": "companyName",
              "type": "string"
            },
            {
              "internalType": "string",
              "name": "position",
              "type": "string"
            },
            {
              "internalType": "uint256",
              "name": "startDate",
              "type": "uint256"
            },
            {
              "internalType": "uint256",
              "name": "endDate",
              "type": "uint256"
            },
            {
              "internalType": "string",
              "name": "employmentType",
              "type": "string"
            },
            {
              "internalType": "bool",
              "name": "isActive",
              "type": "bool"
            },
            {
              "internalType": "string",
              "name": "endReason",
              "type": "string"
            },
            {
              "internalType": "uint256",
              "name": "trustScore",
              "type": "uint256"
            }
          ],
          "internalType": "struct ProofAI.Employment[]",
          "name": "",
          "type": "tuple[]"
        }
      ],
      "stateMutability": "view",
      "type": "function"
    },
    {
      "inputs": [
        {
          "internalType": "address",
          "name": "owner",
          "type": "address"
        }
      ],
      "name": "getEmploymentsByOwner",
      "outputs": [
        {
          "internalType": "uint256[]",
          "name": "",
          "type": "uint256[]"
        }
      ],
      "stateMutability": "view",
      "type": "function"
    },
    {
      "inputs": [
        {
          "internalType": "address",
          "name": "owner",
          "type": "address"
        },
        {
          "internalType": "address",
          "name": "operator",
          "type": "address"
        }
      ],
      "name": "isApprovedForAll",
      "outputs": [
        {
          "internalType": "bool",
          "name": "",
          "type": "bool"
        }
      ],
      "stateMutability": "view",
      "type": "function"
    },
    {
      "inputs": [
        {
          "internalType": "uint256",
          "name": "tokenId",
          "type": "uint256"
        }
      ],
      "name": "isCredentialValid",
      "outputs": [
        {
          "internalType": "bool",
          "name": "",
          "type": "bool"
        }
      ],
      "stateMutability": "view",
      "type": "function"
    },
    {
      "inputs": [
        {
          "internalType": "address",
          "name": "to",
          "type": "address"
        },
        {
          "internalType": "string",
          "name": "credentialType",
          "type": "string"
        },
        {
          "internalType": "string",
          "name": "issuerName",
          "type": "string"
        },
        {
          "internalType": "uint256",
          "name": "trustScore",
          "type": "uint256"
        },
        {
          "internalType": "string",
          "name": "metadataURI",
          "type": "string"
        }
      ],
      "name": "mintCredential",
      "outputs": [
        {
          "internalType": "uint256",
          "name": "",
          "type": "uint256"
        }
      ],
      "stateMutability": "nonpayable",
      "type": "function"
    },
    {
      "inputs": [
        {
          "internalType": "address",
          "name": "employee",
          "type": "address"
        },
        {
          "internalType": "string",
          "name": "companyName",
          "type": "string"
        },
        {
          "internalType": "string",
          "name": "position",
          "type": "string"
        },
        {
          "internalType": "string",
          "name": "employmentType",
          "type": "string"
        },
        {
          "internalType": "string",
          "name": "metadataURI",
          "type": "string"
        }
      ],
      "name": "mintEmploymentNFT",
      "outputs": [
        {
          "internalType": "uint256",
          "name": "",
          "type": "uint256"
        }
      ],
      "stateMutability": "nonpayable",
      "type": "function"
    },
    {
      "inputs": [],
      "name": "name",
      "outputs": [
        {
          "internalType": "string",
          "name": "",
          "type": "string"
        }
      ],
      "stateMutability": "view",
      "type": "function"
    },
    {
      "inputs": [],
      "name": "owner",
      "outputs": [
        {
          "internalType": "address",
          "name": "",
          "type": "address"
        }
      ],
      "stateMutability": "view",
      "type": "function"
    },
    {
      "inputs": [
        {
          "internalType": "uint256",
          "name": "tokenId",
          "type": "uint256"
        }
      ],
      "name": "ownerOf",
      "outputs": [
        {
          "internalType": "address",
          "name": "",
          "type": "address"
        }
      ],
      "stateMutability": "view",
      "type": "function"
    },
    {
      "inputs": [],
      "name": "renounceOwnership",
      "outputs": [],
      "stateMutability": "nonpayable",
      "type": "function"
    },
    {
      "inputs": [
        {
          "internalType": "uint256",
          "name": "tokenId",
          "type": "uint256"
        }
      ],
      "name": "revokeCredential",
      "outputs": [],
      "stateMutability": "nonpayable",
      "type": "function"
    },
    {
      "inputs": [
        {
          "internalType": "address",
          "name": "from",
          "type": "address"
        },
        {
          "internalType": "address",
          "name": "to",
          "type": "address"
        },
        {
          "internalType": "uint256",
          "name": "tokenId",
          "type": "uint256"
        }
      ],
      "name": "safeTransferFrom",
      "outputs": [],
      "stateMutability": "nonpayable",
      "type": "function"
    },
    {
      "inputs": [
        {
          "internalType": "address",
          "name": "from",
          "type": "address"
        },
        {
          "internalType": "address",
          "name": "to",
          "type": "address"
        },
        {
          "internalType": "uint256",
          "name": "tokenId",
          "type": "uint256"
        },
        {
          "internalType": "bytes",
          "name": "data",
          "type": "bytes"
        }
      ],
      "name": "safeTransferFrom",
      "outputs": [],
      "stateMutability": "nonpayable",
      "type": "function"
    },
    {
      "inputs": [
        {
          "internalType": "address",
          "name": "operator",
          "type": "address"
        },
        {
          "internalType": "bool",
          "name": "approved",
          "type": "bool"
        }
      ],
      "name": "setApprovalForAll",
      "outputs": [],
      "stateMutability": "nonpayable",
      "type": "function"
    },
    {
      "inputs": [
        {
          "internalType": "bytes4",
          "name": "interfaceId",
          "type": "bytes4"
        }
      ],
      "name": "supportsInterface",
      "outputs": [
        {
          "internalType": "bool",
          "name": "",
          "type": "bool"
        }
      ],
      "stateMutability": "view",
      "type": "function"
    },
    {
      "inputs": [],
      "name": "symbol",
      "outputs": [
        {
          "internalType": "string",
          "name": "",
          "type": "string"
        }
      ],
      "stateMutability": "view",
      "type": "function"
    },
    {
      "inputs": [
        {
          "internalType": "uint256",
          "name": "tokenId",
          "type": "uint256"
        }
      ],
      "name": "tokenURI",
      "outputs": [
        {
          "internalType": "string",
          "name": "",
          "type": "string"
        }
      ],
      "stateMutability": "view",
      "type": "function"
    },
    {
      "inputs": [
        {
          "internalType": "address",
          "name": "from",
          "type": "address"
        },
        {
          "internalType": "address",
          "name": "to",
          "type": "address"
        },
        {
          "internalType": "uint256",
          "name": "tokenId",
          "type": "uint256"
        }
      ],
      "name": "transferFrom",
      "outputs": [],
      "stateMutability": "nonpayable",
      "type": "function"
    },
    {
      "inputs": [
        {
          "internalType": "address",
          "name": "newOwner",
          "type": "address"
        }
      ],
      "name": "transferOwnership",
      "outputs": [],
      "stateMutability": "nonpayable",
      "type": "function"
    },
    {
      "inputs": [
        {
          "internalType": "address",
          "name": "companyAddress",
          "type": "address"
        }
      ],
      "name": "verifyCompanyLegitimacy",
      "outputs": [
        {
          "internalType": "bool",
          "name": "isVerified",
          "type": "bool"
        },
        {
          "internalType": "uint256",
          "name": "trustScore",
          "type": "uint256"
        },
        {
          "internalType": "string[]",
          "name": "warnings",
          "type": "string[]"
        }
      ],
      "stateMutability": "view",
      "type": "function"
    }
  ],
  "bytecode": "0x60806040523480156200001157600080fd5b506040518060400160405280601d81526020017f50726f6f6641492056657269666961626c652043726564656e7469616c00000081525060405180604001604052806005815260200164282927a7a360d91b8152508160009081620000779190620001a4565b506001620000868282620001a4565b505050620000a36200009d620000a960201b60201c565b620000ad565b62000270565b3390565b600680546001600160a01b038381166001600160a01b0319831681179093556040519116919082907f8be0079c531659141344cd1fd0a4f28419497f9722a3daafe3b4186f6b6457e090600090a35050565b634e487b7160e01b600052604160045260246000fd5b600181811c908216806200012a57607f821691505b6020821081036200014b57634e487b7160e01b600052602260045260246000fd5b50919050565b601f8211156200019f57600081815260208120601f850160051c810160208610156200017a5750805b601f850160051c820191505b818110156200019b5782815560010162000186565b5050505b505050565b81516001600160401b03811115620001c057620001c0620000ff565b620001d881620001d1845462000115565b8462000151565b602080601f831160018114620002105760008415620001f75750858301515b600019600386901b1c1916600185901b1785556200019b565b600085815260208120601f198616915b82811015620002415788860151825594840194600190910190840162000220565b5085821015620002605787850151600019600388901b60f8161c191681555b5050505050600190811b01905550565b6135a080620002806000396000f3fe608060405234801561001057600080fd5b50600436106102065760003560e01c8063729549de1161011a578063c96015db116100ad578063e985e9c51161007c578063e985e9c5146104eb578063edb19660146104fe578063f2fde38b14610511578063f59b2e0014610524578063fdfbd3c91461054757600080fd5b8063c96015db14610462578063de58bdaa14610475578063e0574e3f146104b4578063e22cb438146104d857600080fd5b8063a22cb465116100e9578063a22cb46514610409578063b88d4fde1461041c578063c50145641461042f578063c87b56dd1461044f57600080fd5b8063729549de146103bb5780638da5cb5b146103dd57806395d89b41146103ee578063991dd29a146103f657600080fd5b80632fd271f71161019d5780634b2a4ccd1161016c5780634b2a4ccd1461035a5780636352211e1461037a5780636da48b9a1461038d57806370a08231146103a0578063715018a6146103b357600080fd5b80632fd271f71461030057806332307f011461032157806342842e0e14610334578063441aca361461034757600080fd5b8063095ea7b3116101d9578063095ea7b31461029b5780631b87278d146102b057806321359a8a146102c357806323b872dd146102ed57600080fd5b806301ffc9a71461020b5780630307f9c21461023357806306fdde031461025b578063081812fc14610270575b600080fd5b61021e610219366004612a74565b61056a565b60405190151581526020015b60405180910390f35b610246610241366004612a98565b6105bc565b60405161022a99989796959493929190612af7565b610263610836565b60405161022a9190612b84565b61028361027e366004612a98565b6108c8565b6040516001600160a01b03909116815260200161022a565b6102ae6102a9366004612bb3565b6108ef565b005b6102ae6102be366004612a98565b610a09565b6102d66102d1366004612bdd565b610a7d565b60408051921515835260208301919091520161022a565b6102ae6102fb366004612bf8565b610b75565b61031361030e366004612ce0565b610ba6565b60405190815260200161022a565b6102ae61032f366004612d9e565b610dc5565b6102ae610342366004612bf8565b610f18565b610313610355366004612de5565b610f33565b61036d610368366004612bdd565b611062565b60405161022a9190612e6e565b610283610388366004612a98565b6110ce565b61021e61039b366004612a98565b61112e565b6103136103ae366004612bdd565b61115f565b6102ae6111e5565b6103ce6103c9366004612bdd565b6111f9565b60405161022a93929190612eb2565b6006546001600160a01b0316610283565b6102636113d7565b6102ae610404366004612f25565b6113e6565b6102ae610417366004612f5d565b6115b0565b6102ae61042a366004612f99565b6115bf565b61044261043d366004612bdd565b6115f7565b60405161022a9190613015565b61026361045d366004612a98565b611982565b61036d610470366004612bdd565b611a49565b61049f610483366004612bdd565b600b602052600090815260409020600181015460029091015482565b6040805192835260208301919091520161022a565b6104c76104c2366004612a98565b611ab3565b60405161022a95949392919061311d565b6104426104e6366004612bdd565b611bf6565b61021e6104f9366004613162565b611fba565b6102ae61050c366004612f25565b611fe8565b6102ae61051f366004612bdd565b6120e2565b61021e610532366004612bdd565b600c6020526000908152604090205460ff1681565b61055a610555366004612bdd565b61215b565b60405161022a9493929190613195565b60006001600160e01b031982166380ac58cd60e01b148061059b57506001600160e01b03198216635b5e139f60e01b145b806105b657506301ffc9a760e01b6001600160e01b03198316145b92915050565b600a60205260009081526040902080546001820180546001600160a01b0390921692916105e8906131c4565b80601f0160208091040260200160405190810160405280929190818152602001828054610614906131c4565b80156106615780601f1061063657610100808354040283529160200191610661565b820191906000526020600020905b81548152906001019060200180831161064457829003601f168201915b505050505090806002018054610676906131c4565b80601f01602080910402602001604051908101604052809291908181526020018280546106a2906131c4565b80156106ef5780601f106106c4576101008083540402835291602001916106ef565b820191906000526020600020905b8154815290600101906020018083116106d257829003601f168201915b505050505090806003015490806004015490806005018054610710906131c4565b80601f016020809104026020016040519081016040528092919081815260200182805461073c906131c4565b80156107895780601f1061075e57610100808354040283529160200191610789565b820191906000526020600020905b81548152906001019060200180831161076c57829003601f168201915b5050506006840154600785018054949560ff9092169491935091506107ad906131c4565b80601f01602080910402602001604051908101604052809291908181526020018280546107d9906131c4565b80156108265780601f106107fb57610100808354040283529160200191610826565b820191906000526020600020905b81548152906001019060200180831161080957829003601f168201915b5050505050908060080154905089565b606060008054610845906131c4565b80601f0160208091040260200160405190810160405280929190818152602001828054610871906131c4565b80156108be5780601f10610893576101008083540402835291602001916108be565b820191906000526020600020905b8154815290600101906020018083116108a157829003601f168201915b5050505050905090565b60006108d382612211565b506000908152600460205260409020546001600160a01b031690565b60006108fa826110ce565b9050806001600160a01b0316836001600160a01b03160361096c5760405162461bcd60e51b815260206004820152602160248201527f4552433732313a20617070726f76616c20746f2063757272656e74206f776e656044820152603960f91b60648201526084015b60405180910390fd5b336001600160a01b038216148061098857506109888133611fba565b6109fa5760405162461bcd60e51b815260206004820152603d60248201527f4552433732313a20617070726f76652063616c6c6572206973206e6f7420746f60448201527f6b656e206f776e6572206f7220617070726f76656420666f7220616c6c0000006064820152608401610963565b610a048383612261565b505050565b610a116122cf565b610a1a81612329565b610a375760405163bf38520d60e01b815260040160405180910390fd5b600081815260086020526040808220600401805460ff191660011790555182917f0d47d5695004d2a4180ebb40037756439184993a0d1c6d4a8ff3a6aa9325607491a250565b6000806000610a8b84611062565b90506000805b8251811015610b66576000838281518110610aae57610aae6131fe565b6020908102919091018101516000818152600a90925260409091206006015490915060ff1615610b5357604080518082018252600981526866756c6c2d74696d6560b81b6020918201526000838152600a90915281902090517f5c65be6522c9c33b69f769d581e2733fbfc725ddeb963c1f6f0196e5433afee991610b3891600590910190613214565b604051809103902003610b535782610b4f816132a0565b9350505b5080610b5e816132a0565b915050610a91565b50600181119590945092505050565b610b7f3382612346565b610b9b5760405162461bcd60e51b8152600401610963906132b9565b610a048383836123a5565b336000908152600c602052604081205460ff16610bd657604051634ece54db60e01b815260040160405180910390fd5b610be4600780546001019055565b6000610bef60075490565b9050610bfb87826123d8565b6000818152600960205260409020610c138482613354565b506040805161012081018252338152602080820189815282840189905242606084015260006080840181905260a08401899052600160c085018190528551808501875282815260e0860152605f610100860152868252600a90935293909320825181546001600160a01b0319166001600160a01b03909116178155925191929190820190610ca19082613354565b5060408201516002820190610cb69082613354565b50606082015160038201556080820151600482015560a08201516005820190610cdf9082613354565b5060c082015160068201805460ff191691151591909117905560e08201516007820190610d0c9082613354565b5061010091909101516008909101556001600160a01b0387166000818152600b60209081526040822080546001818101835582855292842001859055928252909101805491610d5a836132a0565b90915550506001600160a01b0387166000818152600b60205260409081902042600290910155513391907f0ebc7cbe60541d01e227ed88f1436348b4145c707da41c1f1aaa665b049d7b5490610db39085908a90613414565b60405180910390a39695505050505050565b6000828152600a6020526040812090610ddd846110ce565b82549091506001600160a01b03163314801590610e035750336001600160a01b03821614155b15610e215760405163031ea47960e21b815260040160405180910390fd5b600682015460ff16610e46576040516331723c7560e21b815260040160405180910390fd5b42600483015560068201805460ff1916905560078201610e668482613354565b506001600160a01b0381166000908152600b602052604090206001015415610eb5576001600160a01b0381166000908152600b60205260408120600101805491610eaf8361342d565b91905055505b6001600160a01b0381166000908152600b602052604090819020426002909101819055905185917fa928265c91242694e82b7ccde81674d331f2428c4869f6995328ceacca30592591610f0a91908790613414565b60405180910390a250505050565b610a04838383604051806020016040528060008152506115bf565b6000610f3d6122cf565b610f4b600780546001019055565b6000610f5660075490565b9050610f6287826123d8565b6000818152600960205260409020610f7a8482613354565b506040805160a081018252878152602080820188905281830187905242606083015260006080830181905284815260089091529190912081518190610fbf9082613354565b5060208201516001820190610fd49082613354565b506040828101516002830155606083015160038301556080909201516004909101805460ff19169115159190911790556001600160a01b0388166000818152600e6020908152838220805460018101825590835291200183905590518291907f7b0f527ad5c65bd61f1c83e3333ed0c259a3d994e78ab98e10c3f296a79c51ef90610db3908a908990613444565b6001600160a01b0381166000908152600b60209081526040918290208054835181840281018401909452808452606093928301828280156110c257602002820191906000526020600020905b8154815260200190600101908083116110ae575b50505050509050919050565b6000818152600260205260408120546001600160a01b0316806105b65760405162461bcd60e51b8152602060048201526018602482015277115490cdcc8c4e881a5b9d985b1a59081d1bdad95b88125160421b6044820152606401610963565b600061113982612329565b61114557506000919050565b5060009081526008602052604090206004015460ff161590565b60006001600160a01b0382166111c95760405162461bcd60e51b815260206004820152602960248201527f4552433732313a2061646472657373207a65726f206973206e6f7420612076616044820152683634b21037bbb732b960b91b6064820152608401610963565b506001600160a01b031660009081526003602052604090205490565b6111ed6122cf565b6111f760006123f2565b565b6001600160a01b0381166000908152600d6020526040808220815160a0810190925280548392606092849282908290611231906131c4565b80601f016020809104026020016040519081016040528092919081815260200182805461125d906131c4565b80156112aa5780601f1061127f576101008083540402835291602001916112aa565b820191906000526020600020905b81548152906001019060200180831161128d57829003601f168201915b505050505081526020016001820160009054906101000a900460ff16151515158152602001600282015481526020016003820154815260200160048201805480602002602001604051908101604052809291908181526020016000905b828210156113b3578382906000526020600020018054611326906131c4565b80601f0160208091040260200160405190810160405280929190818152602001828054611352906131c4565b801561139f5780601f106113745761010080835404028352916020019161139f565b820191906000526020600020905b81548152906001019060200180831161138257829003601f168201915b505050505081526020019060010190611307565b50505091525050602081015160408201516080909201519097919650945092505050565b606060018054610845906131c4565b6113ee6122cf565b6001600160a01b038216611415576040516345d02b0d60e11b815260040160405180910390fd5b6001600160a01b0382166000908152600d602052604090206001015460ff161561145257604051636205a98960e11b815260040160405180910390fd5b6001600160a01b0382166000908152600c60209081526040808320805460ff19166001908117909155815160a08101835285815280840191909152605f818301524260608201528151848152928301909152916080830191906114c5565b60608152602001906001900390816114b05790505b5090526001600160a01b0383166000908152600d60205260409020815181906114ee9082613354565b5060208281015160018301805460ff1916911515919091179055604083015160028301556060830151600383015560808301518051611533926004850192019061294a565b50905050816001600160a01b03167f6087d5798d93d5dc77c9bf8f5eb9b9bfa05f505017a10fa776b18ff0d14bf655826040516115709190612b84565b60405180910390a26040516001600160a01b038316907f72d95b5ce3143d0ea8146e1d68ee36cc9a2996cefe06712c98f4b59041583f1190600090a25050565b6115bb338383612444565b5050565b6115c93383612346565b6115e55760405162461bcd60e51b8152600401610963906132b9565b6115f184848484612512565b50505050565b6060600061160483611062565b90506000815167ffffffffffffffff81111561162257611622612c34565b60405190808252806020026020018201604052801561165b57816020015b6116486129a0565b8152602001906001900390816116405790505b50905060005b825181101561197a57600a6000848381518110611680576116806131fe565b60200260200101518152602001908152602001600020604051806101200160405290816000820160009054906101000a90046001600160a01b03166001600160a01b03166001600160a01b031681526020016001820180546116e1906131c4565b80601f016020809104026020016040519081016040528092919081815260200182805461170d906131c4565b801561175a5780601f1061172f5761010080835404028352916020019161175a565b820191906000526020600020905b81548152906001019060200180831161173d57829003601f168201915b50505050508152602001600282018054611773906131c4565b80601f016020809104026020016040519081016040528092919081815260200182805461179f906131c4565b80156117ec5780601f106117c1576101008083540402835291602001916117ec565b820191906000526020600020905b8154815290600101906020018083116117cf57829003601f168201915b505050505081526020016003820154815260200160048201548152602001600582018054611819906131c4565b80601f0160208091040260200160405190810160405280929190818152602001828054611845906131c4565b80156118925780601f1061186757610100808354040283529160200191611892565b820191906000526020600020905b81548152906001019060200180831161187557829003601f168201915b5050509183525050600682015460ff16151560208201526007820180546040909201916118be906131c4565b80601f01602080910402602001604051908101604052809291908181526020018280546118ea906131c4565b80156119375780601f1061190c57610100808354040283529160200191611937565b820191906000526020600020905b81548152906001019060200180831161191a57829003601f168201915b5050505050815260200160088201548152505082828151811061195c5761195c6131fe565b60200260200101819052508080611972906132a0565b915050611661565b509392505050565b606061198d82612329565b6119aa57604051637f5d514b60e11b815260040160405180910390fd5b600082815260096020526040812080546119c3906131c4565b80601f01602080910402602001604051908101604052809291908181526020018280546119ef906131c4565b8015611a3c5780601f10611a1157610100808354040283529160200191611a3c565b820191906000526020600020905b815481529060010190602001808311611a1f57829003601f168201915b5093979650505050505050565b6001600160a01b0381166000908152600e60209081526040918290208054835181840281018401909452808452606093928301828280156110c257602002820191906000526020600020908154815260200190600101908083116110ae5750505050509050919050565b600860205260009081526040902080548190611ace906131c4565b80601f0160208091040260200160405190810160405280929190818152602001828054611afa906131c4565b8015611b475780601f10611b1c57610100808354040283529160200191611b47565b820191906000526020600020905b815481529060010190602001808311611b2a57829003601f168201915b505050505090806001018054611b5c906131c4565b80601f0160208091040260200160405190810160405280929190818152602001828054611b88906131c4565b8015611bd55780601f10611baa57610100808354040283529160200191611bd5565b820191906000526020600020905b815481529060010190602001808311611bb857829003601f168201915b50505050600283015460038401546004909401549293909290915060ff1685565b60606000611c0383611062565b6001600160a01b0384166000908152600b60205260408120600101549192509067ffffffffffffffff811115611c3b57611c3b612c34565b604051908082528060200260200182016040528015611c7457816020015b611c616129a0565b815260200190600190039081611c595790505b5090506000805b8351811015611fb0576000848281518110611c9857611c986131fe565b6020908102919091018101516000818152600a90925260409091206006015490915060ff1615611f9d578351831015611f9d576000818152600a60209081526040918290208251610120810190935280546001600160a01b031683526001810180549192840191611d08906131c4565b80601f0160208091040260200160405190810160405280929190818152602001828054611d34906131c4565b8015611d815780601f10611d5657610100808354040283529160200191611d81565b820191906000526020600020905b815481529060010190602001808311611d6457829003601f168201915b50505050508152602001600282018054611d9a906131c4565b80601f0160208091040260200160405190810160405280929190818152602001828054611dc6906131c4565b8015611e135780601f10611de857610100808354040283529160200191611e13565b820191906000526020600020905b815481529060010190602001808311611df657829003601f168201915b505050505081526020016003820154815260200160048201548152602001600582018054611e40906131c4565b80601f0160208091040260200160405190810160405280929190818152602001828054611e6c906131c4565b8015611eb95780601f10611e8e57610100808354040283529160200191611eb9565b820191906000526020600020905b815481529060010190602001808311611e9c57829003601f168201915b5050509183525050600682015460ff1615156020820152600782018054604090920191611ee5906131c4565b80601f0160208091040260200160405190810160405280929190818152602001828054611f11906131c4565b8015611f5e5780601f10611f3357610100808354040283529160200191611f5e565b820191906000526020600020905b815481529060010190602001808311611f4157829003601f168201915b50505050508152602001600882015481525050848481518110611f8357611f836131fe565b60200260200101819052508280611f99906132a0565b9350505b5080611fa8816132a0565b915050611c7b565b5090949350505050565b6001600160a01b03918216600090815260056020908152604080832093909416825291909152205460ff1690565b611ff06122cf565b6001600160a01b0382166000908152600d60209081526040822060040180546001810182559083529120016120258282613354565b506001600160a01b0382166000908152600d6020526040902060020154601411612080576001600160a01b0382166000908152600d60205260408120600201805460149290612075908490613466565b9091555061209d9050565b6001600160a01b0382166000908152600d60205260408120600201555b816001600160a01b03167ffa2828ee3f9e5f3c1ebb025ed8be01b41b81a1efe595cffd1f4de6fab5bfa3da826040516120d69190612b84565b60405180910390a25050565b6120ea6122cf565b6001600160a01b03811661214f5760405162461bcd60e51b815260206004820152602660248201527f4f776e61626c653a206e6577206f776e657220697320746865207a65726f206160448201526564647265737360d01b6064820152608401610963565b612158816123f2565b50565b600d60205260009081526040902080548190612176906131c4565b80601f01602080910402602001604051908101604052809291908181526020018280546121a2906131c4565b80156121ef5780601f106121c4576101008083540402835291602001916121ef565b820191906000526020600020905b8154815290600101906020018083116121d257829003601f168201915b5050505060018301546002840154600390940154929360ff9091169290915084565b61221a81612329565b6121585760405162461bcd60e51b8152602060048201526018602482015277115490cdcc8c4e881a5b9d985b1a59081d1bdad95b88125160421b6044820152606401610963565b600081815260046020526040902080546001600160a01b0319166001600160a01b0384169081179091558190612296826110ce565b6001600160a01b03167f8c5be1e5ebec7d5bd14f71427d1e84f3dd0314c0f7b2291e5b200ac8c7c3b92560405160405180910390a45050565b6006546001600160a01b031633146111f75760405162461bcd60e51b815260206004820181905260248201527f4f776e61626c653a2063616c6c6572206973206e6f7420746865206f776e65726044820152606401610963565b6000908152600260205260409020546001600160a01b0316151590565b600080612352836110ce565b9050806001600160a01b0316846001600160a01b0316148061237957506123798185611fba565b8061239d5750836001600160a01b0316612392846108c8565b6001600160a01b0316145b949350505050565b6001600160a01b038316156123cd5760405163545eee7160e01b815260040160405180910390fd5b610a04838383612545565b6115bb8282604051806020016040528060008152506126a9565b600680546001600160a01b038381166001600160a01b0319831681179093556040519116919082907f8be0079c531659141344cd1fd0a4f28419497f9722a3daafe3b4186f6b6457e090600090a35050565b816001600160a01b0316836001600160a01b0316036124a55760405162461bcd60e51b815260206004820152601960248201527f4552433732313a20617070726f766520746f2063616c6c6572000000000000006044820152606401610963565b6001600160a01b03838116600081815260056020908152604080832094871680845294825291829020805460ff191686151590811790915591519182527f17307eab39ab6107e8899845ad3d59bd9653f200f220920489ca2b5937696c31910160405180910390a3505050565b61251d8484846123a5565b612529848484846126dc565b6115f15760405162461bcd60e51b815260040161096390613479565b826001600160a01b0316612558826110ce565b6001600160a01b03161461257e5760405162461bcd60e51b8152600401610963906134cb565b6001600160a01b0382166125e05760405162461bcd60e51b8152602060048201526024808201527f4552433732313a207472616e7366657220746f20746865207a65726f206164646044820152637265737360e01b6064820152608401610963565b826001600160a01b03166125f3826110ce565b6001600160a01b0316146126195760405162461bcd60e51b8152600401610963906134cb565b600081815260046020908152604080832080546001600160a01b03199081169091556001600160a01b0387811680865260038552838620805460001901905590871680865283862080546001019055868652600290945282852080549092168417909155905184937fddf252ad1be2c89b69c2b068fc378daa952ba7f163c4a11628f55a4df523b3ef91a4505050565b6126b383836127dd565b6126c060008484846126dc565b610a045760405162461bcd60e51b815260040161096390613479565b60006001600160a01b0384163b156127d257604051630a85bd0160e11b81526001600160a01b0385169063150b7a0290612720903390899088908890600401613510565b6020604051808303816000875af192505050801561275b575060408051601f3d908101601f191682019092526127589181019061354d565b60015b6127b8573d808015612789576040519150601f19603f3d011682016040523d82523d6000602084013e61278e565b606091505b5080516000036127b05760405162461bcd60e51b815260040161096390613479565b805181602001fd5b6001600160e01b031916630a85bd0160e11b14905061239d565b506001949350505050565b6001600160a01b0382166128335760405162461bcd60e51b815260206004820181905260248201527f4552433732313a206d696e7420746f20746865207a65726f20616464726573736044820152606401610963565b61283c81612329565b156128895760405162461bcd60e51b815260206004820152601c60248201527f4552433732313a20746f6b656e20616c7265616479206d696e746564000000006044820152606401610963565b61289281612329565b156128df5760405162461bcd60e51b815260206004820152601c60248201527f4552433732313a20746f6b656e20616c7265616479206d696e746564000000006044820152606401610963565b6001600160a01b038216600081815260036020908152604080832080546001019055848352600290915280822080546001600160a01b0319168417905551839291907fddf252ad1be2c89b69c2b068fc378daa952ba7f163c4a11628f55a4df523b3ef908290a45050565b828054828255906000526020600020908101928215612990579160200282015b8281111561299057825182906129809082613354565b509160200191906001019061296a565b5061299c9291506129f7565b5090565b60405180610120016040528060006001600160a01b03168152602001606081526020016060815260200160008152602001600081526020016060815260200160001515815260200160608152602001600081525090565b8082111561299c576000612a0b8282612a14565b506001016129f7565b508054612a20906131c4565b6000825580601f10612a30575050565b601f01602090049060005260206000209081019061215891905b8082111561299c5760008155600101612a4a565b6001600160e01b03198116811461215857600080fd5b600060208284031215612a8657600080fd5b8135612a9181612a5e565b9392505050565b600060208284031215612aaa57600080fd5b5035919050565b6000815180845260005b81811015612ad757602081850181015186830182015201612abb565b506000602082860101526020601f19601f83011685010191505092915050565b6001600160a01b038a16815261012060208201819052600090612b1c8382018c612ab1565b90508281036040840152612b30818b612ab1565b905088606084015287608084015282810360a0840152612b508188612ab1565b905085151560c084015282810360e0840152612b6c8186612ab1565b915050826101008301529a9950505050505050505050565b602081526000612a916020830184612ab1565b80356001600160a01b0381168114612bae57600080fd5b919050565b60008060408385031215612bc657600080fd5b612bcf83612b97565b946020939093013593505050565b600060208284031215612bef57600080fd5b612a9182612b97565b600080600060608486031215612c0d57600080fd5b612c1684612b97565b9250612c2460208501612b97565b9150604084013590509250925092565b634e487b7160e01b600052604160045260246000fd5b600067ffffffffffffffff80841115612c6557612c65612c34565b604051601f8501601f19908116603f01168101908282118183101715612c8d57612c8d612c34565b81604052809350858152868686011115612ca657600080fd5b858560208301376000602087830101525050509392505050565b600082601f830112612cd157600080fd5b612a9183833560208501612c4a565b600080600080600060a08688031215612cf857600080fd5b612d0186612b97565b9450602086013567ffffffffffffffff80821115612d1e57600080fd5b612d2a89838a01612cc0565b95506040880135915080821115612d4057600080fd5b612d4c89838a01612cc0565b94506060880135915080821115612d6257600080fd5b612d6e89838a01612cc0565b93506080880135915080821115612d8457600080fd5b50612d9188828901612cc0565b9150509295509295909350565b60008060408385031215612db157600080fd5b82359150602083013567ffffffffffffffff811115612dcf57600080fd5b612ddb85828601612cc0565b9150509250929050565b600080600080600060a08688031215612dfd57600080fd5b612e0686612b97565b9450602086013567ffffffffffffffff80821115612e2357600080fd5b612e2f89838a01612cc0565b95506040880135915080821115612e4557600080fd5b612e5189838a01612cc0565b9450606088013593506080880135915080821115612d8457600080fd5b6020808252825182820181905260009190848201906040850190845b81811015612ea657835183529284019291840191600101612e8a565b50909695505050505050565b6000606082018515158352602085818501526060604085015281855180845260808601915060808160051b870101935082870160005b82811015612f1657607f19888703018452612f04868351612ab1565b95509284019290840190600101612ee8565b50939998505050505050505050565b60008060408385031215612f3857600080fd5b612f4183612b97565b9150602083013567ffffffffffffffff811115612dcf57600080fd5b60008060408385031215612f7057600080fd5b612f7983612b97565b915060208301358015158114612f8e57600080fd5b809150509250929050565b60008060008060808587031215612faf57600080fd5b612fb885612b97565b9350612fc660208601612b97565b925060408501359150606085013567ffffffffffffffff811115612fe957600080fd5b8501601f81018713612ffa57600080fd5b61300987823560208401612c4a565b91505092959194509250565b60006020808301818452808551808352604092508286019150828160051b87010184880160005b8381101561310f57888303603f19018552815180516001600160a01b0316845261012088820151818a87015261307482870182612ab1565b915050878201518582038987015261308c8282612ab1565b9150506060808301518187015250608080830151818701525060a080830151868303828801526130bc8382612ab1565b9250505060c0808301516130d38288018215159052565b505060e080830151868303828801526130ec8382612ab1565b61010094850151979094019690965250509487019492509086019060010161303c565b509098975050505050505050565b60a08152600061313060a0830188612ab1565b82810360208401526131428188612ab1565b604084019690965250506060810192909252151560809091015292915050565b6000806040838503121561317557600080fd5b61317e83612b97565b915061318c60208401612b97565b90509250929050565b6080815260006131a86080830187612ab1565b9415156020830152506040810192909252606090910152919050565b600181811c908216806131d857607f821691505b6020821081036131f857634e487b7160e01b600052602260045260246000fd5b50919050565b634e487b7160e01b600052603260045260246000fd5b6000808354613222816131c4565b6001828116801561323a576001811461324f5761327e565b60ff198416875282151583028701945061327e565b8760005260208060002060005b858110156132755781548a82015290840190820161325c565b50505082870194505b50929695505050505050565b634e487b7160e01b600052601160045260246000fd5b6000600182016132b2576132b261328a565b5060010190565b6020808252602d908201527f4552433732313a2063616c6c6572206973206e6f7420746f6b656e206f776e6560408201526c1c881bdc88185c1c1c9bdd9959609a1b606082015260800190565b601f821115610a0457600081815260208120601f850160051c8101602086101561332d5750805b601f850160051c820191505b8181101561334c57828155600101613339565b505050505050565b815167ffffffffffffffff81111561336e5761336e612c34565b6133828161337c84546131c4565b84613306565b602080601f8311600181146133b7576000841561339f5750858301515b600019600386901b1c1916600185901b17855561334c565b600085815260208120601f198616915b828110156133e6578886015182559484019460019091019084016133c7565b50858210156134045787850151600019600388901b60f8161c191681555b5050505050600190811b01905550565b82815260406020820152600061239d6040830184612ab1565b60008161343c5761343c61328a565b506000190190565b6040815260006134576040830185612ab1565b90508260208301529392505050565b818103818111156105b6576105b661328a565b60208082526032908201527f4552433732313a207472616e7366657220746f206e6f6e20455243373231526560408201527131b2b4bb32b91034b6b83632b6b2b73a32b960711b606082015260800190565b60208082526025908201527f4552433732313a207472616e736665722066726f6d20696e636f72726563742060408201526437bbb732b960d91b606082015260800190565b6001600160a01b038581168252841660208201526040810183905260806060820181905260009061354390830184612ab1565b9695505050505050565b60006020828403121561355f57600080fd5b8151612a9181612a5e56fea2646970667358221220d5388f51c7372f34c5301f05799812f8e11573eac360319786b0dc4c07742ffc64736f6c63430008140033",
  "linkReferences": {},
  "deployedLinkReferences": {}
}